:100000000C9462000C948A000C948A000C948A0070
:100010000C948A000C948A000C948A000C948A0038
:100020000C948A000C948A000C948A000C948A0028
:100030000C948A000C948A000C948A000C948A0018
:100040000C9428090C948A000C94F6080C94D0089F
:100050000C948A000C948A000C948A000C948A00F8
:100060000C9472090C948A00000000002400270000
:100070002A0000000000250028002B0000000008D6
:10008000000201000003040700000000000000005F
:1000900000000000230026002900040404040404D6
:1000A0000404020202020202030303030303010227
:1000B00004081020408001020408102001020408F6
:1000C0001020910A11241FBECFEFD8E0DEBFCDBFB4
:1000D00012E0A0E0B1E0EEE5F9E202C005900D9279
:1000E000A03CB107D9F724E0A0ECB2E001C01D921A
:1000F000AE3CB207E1F710E0C2E6D0E004C02197C1
:10010000FE010E949814C136D107C9F70E94600B06
:100110000C94AD140C940000CF92DF92EF92FF92FA
:10012000CF93DF93B091C204A0E08111AB2F8091F7
:10013000C30490E0880F991FAC0140575F4FC090F7
:10014000C804D090C904E090CA04F090CB0430E019
:1001500020E0FA01C591D491E881B90190E080E0F6
:10016000EB23EA130AC02F5F3F4F6C157D058E0508
:100170009F0578F36FEF7FEFCB01DF91CF91FF9079
:10018000EF90DF90CF90089596E0899FD0011124E1
:10019000A45BBB4F90967C936E935F9791E0919692
:1001A0009C939197E091B904F091BA049091B804AE
:1001B000992339F0309751F0811108C0809168047B
:1001C0000994309719F05C968C91FACF08950895B0
:1001D0000895AF92BF92CF92DF92EF92FF920F936A
:1001E0001F93CF93DF936C017B018B01040F151FCD
:1001F000EB015E01AE18BF08C017D10759F0699135
:10020000D601ED91FC910190F081E02DC601099598
:10021000892B79F7C501DF91CF911F910F91FF9045
:10022000EF90DF90CF90BF90AF900895FC01538D79
:10023000448D252F30E0842F90E0821B930B5417C0
:1002400010F0CF96089501970895FC01918D828D4D
:10025000981761F0A28DAE0FBF2FB11D5D968C91E6
:10026000928D9F5F9F73928F90E008958FEF9FEF25
:100270000895FC01918D828D981731F0828DE80FE1
:10028000F11D858D90E008958FEF9FEF0895FC019B
:10029000918D228D892F90E0805C9F4F821B910968
:1002A0008F739927089587E993E00E94470121E021
:1002B000892B09F420E0822F089580E090E0892BBB
:1002C00029F00E94530181110C9400000895FC0153
:1002D000A48DA80FB92FB11DA35ABF4F2C91848DA7
:1002E00090E001968F739927848FA689B7892C9304
:1002F000A089B1898C91837080648C93938D848D57
:10030000981306C00288F389E02D80818F7D808359
:100310000895EF92FF920F931F93CF93DF93EC0119
:1003200081E0888F9B8D8C8D98131AC0E889F9899C
:10033000808185FF15C09FB7F894EE89FF8960839F
:10034000E889F98980818370806480839FBF81E020
:1003500090E0DF91CF911F910F91FF90EF90089562
:10036000F62E0B8D10E00F5F1F4F0F731127E02E3D
:100370008C8D8E110CC00FB607FCFACFE889F98975
:10038000808185FFF5CFCE010E946701F1CFEB8D13
:10039000EC0FFD2FF11DE35AFF4FF0829FB7F89449
:1003A0000B8FEA89FB8980818062CFCFCF93DF9367
:1003B000EC01888D8823B9F0AA89BB89E889F9897D
:1003C0008C9185FD03C0808186FD0DC00FB607FCB2
:1003D000F7CF8C9185FFF2CF808185FFEDCFCE01E5
:1003E0000E946701E9CFDF91CF910895833081F0BA
:1003F00028F4813099F08230A9F008958730A9F06F
:100400008830C9F08430B1F4809180008F7D03C0C2
:10041000809180008F7780938000089584B58F77D6
:1004200084BD089584B58F7DFBCF8091B0008F7718
:100430008093B00008958091B0008F7DF9CFCF9365
:10044000DF93282F30E0F901E458FF4F8491F90140
:10045000E255FF4FD491F901E656FF4FC491CC23EA
:10046000A1F081110E94F601EC2FF0E0EE0FFF1FCA
:10047000E057FF4FA591B491EC91ED2381E090E01E
:1004800009F480E0DF91CF91089580E090E0FACF09
:10049000862F0C941F021F93CF93DF93282F30E0F9
:1004A000F901E458FF4F8491F901E255FF4FD491CF
:1004B000F901E656FF4FC491CC23A9F0162F811104
:1004C0000E94F601EC2FF0E0EE0FFF1FEE58FF4FF9
:1004D000A591B4918FB7F894EC91111108C0D09503
:1004E000DE23DC938FBFDF91CF911F910895DE2B28
:1004F000F8CF862F642F0C944B02CF93DF9390E0BC
:10050000FC01E255FF4F249186569F4FFC018491D8
:100510008823C9F090E0880F991FFC01E859FF4F2C
:10052000A591B491FC01EE58FF4FC591D491611192
:100530000DC09FB7F8948C91209582238C9388816D
:10054000282328839FBFDF91CF910895623051F413
:100550009FB7F8943C91822F809583238C93E881F8
:100560002E2BEFCF8FB7F894EC912E2B2C938FBFBF
:10057000EACF862F642F0C947D023FB7F8948091C8
:100580006E0390916F03A0917003B091710326B533
:10059000A89B05C02F3F19F00196A11DB11D3FBFBB
:1005A000BA2FA92F982F8827BC01CD01620F711D8A
:1005B000811D911D42E0660F771F881F991F4A9584
:1005C000D1F708958F929F92AF92BF92CF92DF9210
:1005D000EF92FF924B015C010E94BD026B017C0116
:1005E0000E94BD026C197D098E099F09683E734007
:1005F00081059105A8F321E0821A9108A108B108AC
:1006000088EEC80E83E0D81EE11CF11C8114910411
:10061000A104B10429F7FF90EF90DF90CF90BF9035
:10062000AF909F908F9008952FB7F89460916A03D0
:1006300070916B0380916C0390916D032FBF0895AF
:10064000CF92DF92EF92FF920F931F93CF93DF939E
:10065000CDB7DEB7C054D1400FB6F894DEBF0FBEA1
:10066000CDBF0E9414030091C4041091C5042091D1
:10067000C6043091C7046B017C01C01AD10AE20A9A
:10068000F30A97018601003D17402105310590F4DA
:100690008091CC04C05CDE4F0FB6F894DEBF0FBE75
:1006A000CDBFDF91CF911F910F91FF90EF90DF9021
:1006B000CF9008956093C4047093C5048093C604DA
:1006C0009093C7041092BF041092BE041092BD0410
:1006D0001092BC041092BB0462E08091C0040E949E
:1006E0007D0261E070E080E090E00E94E20261E063
:1006F0008091C0040E947D0260E08091C0040E944D
:100700004B028091C1048551823020F58BE291E14A
:100710000197F1F762E08091C0040E947D02809110
:10072000CD0490E08230910538F0880F991F880F32
:10073000991F05970197F1F7F89480E00E948C00CB
:100740006F3F7F4F8F4F9F4F61F41092CC0478948E
:1007500080E0A0CF64E170E080E090E00E94E202DF
:10076000D9CF81E00E948C006F3F7F4F8F4F9F4F0A
:1007700061F38E010F5F1F4F6E012FEBC21A2EEF38
:10078000D20A780180E00E948C00F70160837183B7
:100790008283938381E00E948C00F70164837583D8
:1007A00086839783F8E0EF0EF11CEC14FD0451F7FB
:1007B000789430E020E0F801C080D180E280F380BE
:1007C0004481558166817781FFEFCF16DF06EF0602
:1007D000FF0631F04F3F8FEF58076807780719F48D
:1007E0001092CC04B5CFF90183E0F595E7958A9591
:1007F000E1F7E554FB4F8081880FC416D506E60665
:10080000F70610F180832F5F3F4F085F1F4F28329C
:10081000310589F64091BF042091BB048091BC044E
:10082000280F3327331F8091BD04280F311D80917D
:10083000BE04820F932F911D99274817190681F640
:1008400081E08093CC0426CF8160DCCF0F931F938F
:10085000CF93DF93C82FD62F86E0C89FF0011124D5
:10086000E45BFB4F11A2878D90A181309105F1F0DF
:1008700058F082309105F1F1039709F440C0DF91FF
:10088000CF911F910F9108956623C9F361E070E045
:100890008C2F0E94C4000E9414036093A4047093E0
:1008A000A5048093A6049093A704E9CF0E941403A3
:1008B0000091A4041091A5042091A6043091A704EE
:1008C000AB01BC01401B510B620B730B8091B60452
:1008D0009091B704B0E0A0E084179507A607B7078A
:1008E00048F462E070E08C2FDF91CF911F910F915F
:1008F0000C94C40063E070E0D111C1CFF4CF70E07C
:1009000060E0F1CF85ED8093BC008091BC0084FD58
:10091000FCCF10927803089520912203260F3327ED
:10092000331F21323105ECF420917803FC0190E073
:1009300080E0243069F082E00895A09122032191A3
:10094000AC014E5F5C4FA40FB52FB11D2C930196E7
:10095000861798F380912203680F6093220380E04A
:10096000089581E008950895E0917C0380917B03D0
:10097000E81730F4F0E0EE51FD4F808190E00895EB
:100980008FEF9FEF089590917C0380917B032FEF71
:100990003FEF981748F4E92FF0E0EE51FD4F20812A
:1009A00030E09F5F90937C03C901089580917B03A1
:1009B00090917C03891B990B0895CF92DF92EF925F
:1009C000FF920F931F93CF93DF937C01CB018A019A
:1009D0002091E102222389F0EB016B01C40ED51EA8
:1009E000CC15DD0569F06991D701ED91FC9101907D
:1009F000F081E02DC7010995F3CF642F0E948C048C
:100A0000C801DF91CF911F910F91FF90EF90DF9080
:100A1000CF900895CF93DF931F92CDB7DEB7698350
:100A20002091E1022223F9F020917903203258F03D
:100A300021E030E0FC013383228390E080E00F90DE
:100A4000DF91CF91089580917A03E82FF0E0EF5382
:100A5000FD4F998190838F5F80937A038093790310
:100A600081E090E0ECCF61E0CE0101960E948C0421
:100A7000F7CFCF93FC01C48121E02093E102C09322
:100A8000C00210927A03109279038385682B84E365
:100A900094E00E940A0590917903913208F03FC0DA
:100AA000809178038111FCCF82E08093780381E00C
:100AB000809377038FEF80934503109267039093A1
:100AC0006603A1ECB2E0E6E4F3E080E098132FC007
:100AD0001092680380916803CC0FC82BC093680301
:100AE00080917603813039F5109276038091680306
:100AF0008093BB008091BC0083FDF8CF85EC809390
:100B0000BC00809178038230E1F3809145038F3FF0
:100B100031F080914503803211F0809145031092AD
:100B20007A03109279031092E102CF9108952D91EA
:100B300021938F5FCBCF85EEE2CF089590E080E0E8
:100B40000895FC0101900020E9F73197AF01481B9F
:100B5000590BBC0180E494E00C94E9008F929F92C1
:100B6000AF92BF920F931F93CF93DF93CDB7DEB7B2
:100B7000A1970FB6F894DEBF0FBECDBF19A24230C9
:100B800008F44AE08E010F5D1F4F842E912CB12C8A
:100B9000A12CA50194010E945014E62FB901CA01AD
:100BA000EA30F4F4E05DD801EE938D01232B242B81
:100BB000252B79F790E080E0109719F0CD010E9485
:100BC000A105A1960FB6F894DEBF0FBECDBFDF9191
:100BD000CF911F910F91BF90AF909F908F900895EC
:100BE000E95CE1CF0C94A1050F931F93CF938C0187
:100BF000C62F0E9439056C2F6460C8010E94390518
:100C00006C2F6B7FC8010E94390583EC90E001973F
:100C1000F1F7CF911F910F9108950F931F93CF93E9
:100C2000DF938C01D62FC42F607F642B0E94F405C4
:100C300080E1D89FB00111246C2BC801DF91CF91C6
:100C40001F910F910C94F405CF93DF93CDB7DEB7CE
:100C500028970FB6F894DEBF0FBECDBF98E0E9E14C
:100C6000F1E0DE01119601900D929A95E1F79091D5
:100C70004804961710F46FEF690F262F30E0220F0B
:100C8000331F41E050E04C0F5D1F240F351FF90169
:100C90006081680F606840E080E494E028960FB6B9
:100CA000F894DEBF0FBECDBFDF91CF910C940D063F
:100CB00040E061E080E494E00E940D068BE39FE158
:100CC0000197F1F7089583E090E090938203809379
:100CD00081030E94580660E080E00E9424068BE5B4
:100CE00091E00E94F20561E080E00E9424068FE618
:100CF00091E00E94F20562E080E00E94240688E70D
:100D000091E00E94F20562E080E10E9424068EE7F5
:100D100091E00E94F20563E088E00E94240683E8E7
:100D200091E00C94F20582E090E09093820380932E
:100D300081030E94580660E080E00E94240680E95A
:100D400091E00E94F20561E080E00E94240680EAC2
:100D500091E00E94F20562E080E00E94240688E7AC
:100D600091E00E94F20562E080E10E9424068EE795
:100D700091E00E94F20563E088E00E94240683E887
:100D800091E00C94F20581E090E0909382038093CF
:100D900081030E94580660E080E00E9424068DEAEC
:100DA00091E00E94F20561E080E00E9424068FEB52
:100DB00091E00E94F20562E080E00E94240688E74C
:100DC00091E00E94F20562E080E10E9424068EE735
:100DD00091E00E94F20563E088E00E94240683E827
:100DE00091E00C94F2050E94580660E080E00E94B9
:100DF000240681ED91E00E94F20561E080E00E940E
:100E000024068EED91E00C94F2050E94580660E0F5
:100E100080E00E9424068CEE91E00E94F20561E0E1
:100E200080E00E94240684EF91E00E94F20562E0D7
:100E300080E00E9424068CEF91E00E94F20563E0BE
:100E400082E00E9424068AE092E00C94F2050E945F
:100E5000580660E085E00E94240684E192E00E944A
:100E6000F20561E083E00E9424068FE192E00C9499
:100E7000F20541E00E940D0681E090E00895CF92D6
:100E8000DF92EF92FF926C01990FEE08FF08F7FED8
:100E900016C041E06DE280E494E00E940D066627F2
:100EA0007727CB016C197D098E099F094AE00E94C2
:100EB000AE050196FF90EF90DF90CF9008954AE045
:100EC000C701B601FF90EF90DF90CF900C94AE0574
:100ED0000E94580660E085E00E94240684E192E0CA
:100EE0000E94F20561E083E00E9424068FE192E017
:100EF0000E94F20563E084E00E9424068DE292E005
:100F00000E94F20563E08EE00E942406809189032E
:100F100090918A030C943F070E94580660E085E098
:100F20000E94240684E192E00E94F20561E083E0E1
:100F30000E9424068FE192E00E94F20563E084E0C3
:100F40000E94240687E392E00E94F20563E08EE0AF
:100F50000E94240680918B0390918C030C943F0790
:100F60000E94580660E085E00E94240684E192E039
:100F70000E94F20561E083E00E9424068FE192E086
:100F80000E94F20563E084E00E94240681E492E07E
:100F90000E94F20563E08EE00E94240680918D039A
:100FA00090918E030C943F070E94580660E085E004
:100FB0000E94240684E192E00E94F20561E083E051
:100FC0000E9424068FE192E00E94F20563E084E033
:100FD0000E9424068BE492E00E94F20563E08EE01A
:100FE0000E94240680918F03909190030C943F07F8
:100FF0004F925F926F927F928F929F92AF92BF9229
:10100000CF92DF92EF92FF92CF93DF936B017C013F
:10101000AC019B010E944B14882391F085E592E07E
:10102000DF91CF91FF90EF90DF90CF90BF90AF9086
:101030009F908F907F906F905F904F900C94A10540
:1010400046015701E894B7F82FEF3FEF4FE75FE70E
:10105000C501B4010E944B1481110DC02FEF3FEF69
:101060004FE75FE7C501B4010E94F31218161CF4A4
:1010700089E592E0D5CF2FEF3FEF4FE75FE4C7015F
:10108000B6010E94D91318161CF48DE592E0C8CF62
:101090002FEF3FEF4FE75FECC701B6010E94F3125D
:1010A00087FDF3CF20E030E0A901C701B6010E941F
:1010B000F312D0E0C0E087FF0CC041E06DE280E4B5
:1010C00094E00E940D06F7FAF094F7F8F094C1E06E
:1010D000D0E02AE037ED43EA5BE3C701B6010E94A6
:1010E00087124B015C010E94F8126B017C010E9487
:1010F00027139B01AC01C501B4010E9486124B016C
:101100005C014AE0C701B6010E94AE057C01EC0E0D
:10111000FD1E41E06EE280E494E00E940D068FEF38
:10112000E81AF80A20E030E040E251E4C501B401D9
:101130000E94DE132B013C010E94F8124B01B12CDE
:10114000A12C4AE0C501B4010E94AE05E80EF91ECB
:10115000C501B4010E9427139B01AC01C301B20178
:101160000E94861220E030E040E251E40E94DE134B
:101170000E94F81290E080E04AE00E94AE058E0DD9
:101180009F1DDF91CF91FF90EF90DF90CF90BF90A8
:10119000AF909F908F907F906F905F904F90089549
:1011A0001F920F920FB60F9211242F933F934F93DC
:1011B0005F936F937F938F939F93AF93BF93EF93BF
:1011C000FF9387E993E00E946701FF91EF91BF9140
:1011D000AF919F918F917F916F915F914F913F91CF
:1011E0002F910F900FBE0F901F9018951F920F9286
:1011F0000FB60F9211242F938F939F93EF93FF932A
:10120000E091A703F091A8038081E091AD03F091F4
:10121000AE0382FD1BC090818091B0038F5F8F73FE
:101220002091B103821741F0E091B003F0E0E9565C
:10123000FC4F958F8093B003FF91EF919F918F9119
:101240002F910F900FBE0F901F9018958081F4CFB3
:101250001F920F920FB60F9211242F933F938F93EB
:101260009F93AF93BF9380916A0390916B03A0917A
:101270006C03B0916D033091690323E0230F2D3788
:1012800058F50196A11DB11D2093690380936A034F
:1012900090936B03A0936C03B0936D0380916E03E6
:1012A00090916F03A0917003B09171030196A11DFD
:1012B000B11D80936E0390936F03A0937003B0935E
:1012C0007103BF91AF919F918F913F912F910F909B
:1012D0000FBE0F901F90189526E8230F0296A11DB0
:1012E000B11DD2CF1F920F920FB60F9211242F93E0
:1012F0003F934F935F936F937F938F939F93AF939E
:10130000BF93EF93FF938091B900887F803609F4F3
:101310004AC0F0F5883209F4A7C018F5803109F405
:101320009BC0B8F4882309F4F9C0883009F494C04C
:10133000FF91EF91BF91AF919F918F917F916F91AD
:101340005F914F913F912F910F900FBE0F901F9083
:101350001895883109F488C0803251F7809345038D
:1013600014C0803409F49DC040F48033B9F388334D
:10137000F9F68093450385ECB0C0803509F485C04B
:10138000883509F496C0883499F60E948204D0CF3B
:10139000883909F48CC038F5883729F050F488363C
:1013A00011F0803729F683E080937803109244038C
:1013B00057C0883809F47BC0803919F0803809F0AB
:1013C000B7CF80914403803208F071C0E0914403AC
:1013D00081E08E0F809344038091BB00F0E0EC5DD0
:1013E000FC4F80833DC0803B39F0E0F4803A09F443
:1013F00079C0883A09F09CCF84E0809378031092FA
:10140000230310922203E0917403F0917503099570
:101410008091220381110FC081E0809322031092FA
:10142000020309C0803C09F4A6CF883C09F4A3CF8D
:10143000883B09F07DCFE091230381E08E0F8093FC
:101440002303F0E0EE5FFC4F80818093BB0090911E
:1014500023038091220329C0809168038093BB00FD
:1014600085EC8093BC0064CF909167038091660304
:10147000981758F5E091670381E08E0F809367031A
:10148000F0E0EA5BFC4F8081E9CFE091670381E007
:101490008E0F809367038091BB00F0E0EA5BFC4F06
:1014A000808390916703809166039817C8F285E85E
:1014B000D8CFE091670381E08E0F8093670380911E
:1014C000BB00F0E0EA5BFC4F8083809177038111E1
:1014D0005CCF81E08093760384EA8093BC00109215
:1014E000780326CF85EC8093BC001092780380911E
:1014F0004403803230F4E0914403F0E0EC5DFC4FB3
:1015000010826091440370E0E0917203F0917303E4
:1015100084E293E00995109244030ACF10924503A8
:1015200034CF10929A031092990388EE93E0A0E0D2
:10153000B0E080939B0390939C03A0939D03B09392
:101540009E0325E231E0309398032093970325EC26
:1015500030E03093A4032093A30324EC30E03093D5
:10156000A6032093A50320EC30E03093A80320933A
:10157000A70321EC30E03093AA032093A90322ECC7
:1015800030E03093AC032093AB0326EC30E0309393
:10159000AE032093AD031092B0031092B1031092EA
:1015A000B2031092B3031092370410923604809362
:1015B000380490933904A0933A04B0933B0487E332
:1015C00091E090933504809334048CE08093C004C0
:1015D0008BE08093C104EAEBF0E0E491E093C20475
:1015E000E6EAF0E0E491E093C30480E89EE3A0E043
:1015F000B0E08093C8049093C904A093CA04B09348
:10160000CB0410924E041092520410925104109286
:10161000530485E591E090934D0480934C04E8E6F3
:10162000F4E01082148213821582369684E0E43A44
:10163000F807B9F785E091E09093AF048093AE048A
:1016400081E091E09093B1048093B00484E08093B2
:10165000B2048093B30429E031E03093AD042093C9
:10166000AC042AE030E03093B5042093B40424EFB6
:1016700031E03093B7042093B6041092BA0410926C
:10168000B9041092A8041092A9041092AA0410920E
:10169000AB041092B804109243041092420429E45F
:1016A00031E0309341042093400497E29093440446
:1016B00094E19093490480934A0410924B04089556
:1016C000789484B5826084BD84B5816084BD85B51D
:1016D000826085BD85B5816085BD80916E00816029
:1016E00080936E00109281008091810082608093CF
:1016F00081008091810081608093810080918000D1
:101700008160809380008091B10084608093B100FB
:101710008091B00081608093B00080917A008460F5
:1017200080937A0080917A00826080937A00809121
:101730007A00816080937A0080917A00806880933B
:101740007A001092C100E091A703F091A80382E013
:101750008083E091A303F091A4031082E091A5039C
:10176000F091A6038FEC80831092AF03E091AB035E
:10177000F091AC0386E08083E091A903F091AA0385
:10178000808180618083E091A903F091AA03808128
:1017900088608083E091A903F091AA03808180682A
:1017A0008083E091A903F091AA0380818F7D8083DB
:1017B00061E086E00E947D0261E087E00E947D0298
:1017C00010927C0310927B0310927A03109279039B
:1017D0001092780381E0809377031092760361E0A2
:1017E00082E10E944B0261E083E10E944B02809102
:1017F000B9008E7F8093B9008091B9008D7F80936E
:10180000B90088E48093B80085E48093BC0087EE3B
:1018100090E0909375038093740388EE90E090932A
:101820007303809372031092450480914A048230BE
:1018300018F098E0909345048093480462E370E0C8
:1018400080E090E00E94E20260914B0480E494E02A
:101850000E94390568EE73E080E090E00E94E202A9
:1018600060E380E494E00E94F405CBE4D6E4CE018A
:101870000197F1F760E380E494E00E94F40521977A
:10188000F1F760E380E494E00E94F40583E592E0E0
:101890000197F1F760E280E494E00E94F405609122
:1018A0004504606240E080E494E00E940D0684E01C
:1018B0008093460440E06CE080E494E00E940D06D2
:1018C0000E94580682E08093470440E066E080E48E
:1018D00094E00E940D0640E062E080E494E00E9403
:1018E0000D068BE39FE10197F1F788E080934B04AD
:1018F00060E080E494E00E94390560E080E00E94AE
:10190000240684E090E090938803809387030E94EC
:10191000270762E08091C0040E947D020E941403A8
:10192000605D7740810991096093C4047093C50498
:101930008093C6049093C70487E38093CD0465E049
:10194000262E312C74E0E72EF12C01E010E081E02E
:101950008093B8040E9414038090A8049090A90476
:10196000A090AA04B090AB04AB01BC01481959097E
:101970006A097B098091B4049091B504B0E0A0E0BD
:1019800084179507A607B70708F009C1C0E0809142
:10199000B204C81760F4E091AE04F091AF04EC0F0C
:1019A000F11D62E080810E947D02CF5FF0CF712C3B
:1019B0008091B304781608F063C0C72DD0E0E091A1
:1019C000B004F091B104EC0FFD1F61E080810E9432
:1019D0007D02E091B004F091B104EC0FFD1F60E0D6
:1019E00080810E944B0281E090E0A0E0B0E0072CF3
:1019F00004C0880F991FAA1FBB1F0A94D2F75C016D
:101A00006C01C094D094612C8091B204681610F5DA
:101A1000862C912CE091AE04F091AF04E80DF91DF5
:101A200080810E941F0294012C5F3F4FF901EE0F4D
:101A3000FF1FE45BFB4F892B41F4808191818A2950
:101A40009B29918380836394DFCF808191818C2156
:101A50009D21F7CFE091B004F091B104EC0FFD1F90
:101A600061E080810E944B028091B0049091B104AA
:101A7000C80FD91F60E088810E947D02739498CFBF
:101A8000CCE4D4E06E01F601878D90A1892B31F46E
:101A9000148E2FEF3FEF368F258F11A236E0C30E45
:101AA000D11C58E8C51654E0D50669F7B12C8091D1
:101AB000B204B81608F053C0A12C8B2D90E0880F0B
:101AC000991FFC01EC5AFB4F4F012091B304A21661
:101AD00008F043C0F401608171810A2C02C0769540
:101AE00067950A94E2F7B29E900111242A0D311DE8
:101AF000ECE4F4E080E0458D568D2417350709F4B9
:101B000064C48F5F36968A30B1F760FF24C0ECE47E
:101B1000F4E090E080E0448D411118C0E091AC0405
:101B2000F091AD04E20FF31F408156E0589FF001A1
:101B3000599FF00D1124E45BFB4F448F368F258FA6
:101B400010A2178E61E00E94260405C00196369609
:101B50008A30910501F7A394B8CFB394A8CFB12CE4
:101B600089A18111B82E2696CC16DD06C9F70E94F0
:101B700014036093A8047093A9048093AA0490931B
:101B8000AB04BB2061F080916D04882341F080910B
:101B90006B0490916C04C0916804019719F0109245
:101BA000B804C0E00E9414038090930390909403C3
:101BB000A0909503B0909603681979098A099B094A
:101BC000693B7B408105910508F4F3C00E94140332
:101BD000609393037093940380939503909396037B
:101BE0000E94580660E085E00E94240684E192E0AD
:101BF0000E94F20561E083E00E9424068FE192E0FA
:101C00000E94F20580919103909192038230910598
:101C100009F4ADC00CF081C0019709F495C0F092B1
:101C20008803E0928703C13409F023C40E9414039F
:101C3000609393037093940380939503909396031A
:101C40000E94140310938603009385030E940507E6
:101C50008091870390918803029709F066C20E94E1
:101C6000580680E480937C0080917A0080648093A1
:101C70007A0080917A0086FDFCCF809178004091B7
:101C80007900542F482F20E137E2DA010E949114A5
:101C90004B015C01A0E0B4E0A41BB50B26E930E0E9
:101CA0000E9491149B01AC01C501B4010E94721401
:101CB000309384032093830360E080E00E94240635
:101CC0008AED91E00E94F20561E08EE00E94240618
:101CD00080918303909184030E943F0763E088E032
:101CE0000E94240683E891E00E94F20564E670E019
:101CF00080E090E00E94E202309288032092870305
:101D0000C43309F012C28091890390918A0301962D
:101D100090938A0380938903BBC083309105C1F1FE
:101D2000049709F07CCF63E084E00E9424068DE2F2
:101D300092E00E94F20563E08EE00E94240680910A
:101D4000890390918A0310C063E084E00E94240616
:101D50008BE492E00E94F20563E08EE00E9424068C
:101D600080918F03909190030E943F0758CF63E0CA
:101D700084E00E94240681E492E00E94F20563E080
:101D80008EE00E94240680918D0390918E03ECCF0B
:101D900063E084E00E94240687E392E00E94F2055B
:101DA00063E08EE00E94240680918B0390918C0367
:101DB000DBCFC13441F4809187039091880304976D
:101DC00009F046CF33CFC23409F056C38091870360
:101DD00090918803049709F03BCF0E94140360930D
:101DE00093037093940380939503909396030E94BA
:101DF000140322E030E030938603209385030E9491
:101E0000F30626CF8091850390918603019709F010
:101E10001FCF0E94140360939303709394038093E5
:101E20009503909396030E9414039091000181E022
:101E3000911180E0809300016091000187E00E9491
:101E40004B020E94580660E085E00E94240682E76B
:101E500092E00E94F20561E086E00E9424068BE693
:101E600092E00E94F20563E088E00E94240683E885
:101E700091E00E94F20510938803009387038091FC
:101E80008D0390918E03019690938E0380938D0322
:101E900080E090E0892B09F45ACD0E9453018823F9
:101EA00009F453CD0E94000050CD8091850390919C
:101EB0008603019709F0CCCE0E941403609393032C
:101EC0007093940380939503909396030E94140358
:101ED0000E9458060E942003882349F08091C10483
:101EE0008B3028F08D3050F085518230C8F1412C74
:101EF000512C30EC632E3FE7732E1EC06091BC0462
:101F000070E090E080E00E9429132DEC3CEC4CEC5A
:101F10005DE30E94DE134B015C016091BB0470E045
:101F200090E080E00E9429139B01AC01C501B4013F
:101F30000E9487122B013C010E942003882309F490
:101F4000EDC08091C1048C3009F4C3C0D8F48B304B
:101F500091F1812C912C90ECA92E9FE7B92E55C0C0
:101F60006091BB047091BC0476276727762790E0C8
:101F700080E00E9427132DEC3CEC4CEC5DE30E94CA
:101F8000DE13D8CF8551823020F7D091BD046D2F5C
:101F900070E0762F662766277F778091BE04682BD6
:101FA00090E080E00E9427132DEC3CEC4CEC5DE3CC
:101FB0000E94DE13AAC06091BD0470E090E080E052
:101FC0000E9427134B015C01D091BE04D7FF0AC0C9
:101FD000AC019B0160E070E080E89FEB0E948612FC
:101FE0004B015C01DF706D2F70E090E080E00E949B
:101FF00029132DEC3CEC4CEC5DE30E94DE13A501B3
:1020000094010E9487124B015C01A3019201C3015C
:10201000B2010E944B14811108C0A5019401C501B1
:10202000B4010E944B14882371F00E9458068DE77A
:1020300092E00E94A10581EA92E00E94A10510931E
:1020400088030093870361E080E00E94240684EA0D
:1020500092E00E94F20561E08DE00E942406C30137
:10206000B2010E94F80761E083E10E9424068EEA33
:1020700092E00E94F20560E080E00E94240680EB7E
:1020800092E00E94F20560E08DE00E942406C50106
:10209000B4010E94F80760E083E10E9424068EEB01
:1020A00092E00E94F205109388030093870363E097
:1020B00080E00E94240683E891E00E94F20580916E
:1020C0008B0390918C03019690938C0380938B03E8
:1020D000BFCDD091BD046D2F70E090E080E00E94F4
:1020E00027134B015C016091BE046F7070E090E0BB
:1020F00080E00E9429132DEC3CEC4CEC5DE30E9447
:10210000DE13A50194010E9487124B015C01D7FFE9
:102110007CCFB7FAB094B7F8B09477CF812C912CDC
:1021200080ECA82E8FE7B82E80CFC53321F58091A3
:10213000850390918603029709F0AACE0E941403AA
:102140006093930370939403809395039093960305
:102150000E9414030E94C30610938203009381031C
:1021600083E090E090938603809385033092880308
:10217000209287038DCEC73381F48091870390919D
:102180008803049709F084CE89E090E0909392034D
:10219000809391030E9427077BCEC63309F03AC192
:1021A0008091870390918803049709F071CE0E9473
:1021B000D4071093800300937F031093920300933E
:1021C000910310937E0300937D0362CEC0917F0341
:1021D000D0918003C130D10509F05ACE0E9414037A
:1021E0006093930370939403809395039093960365
:1021F0000E94140380917D0390917E030196909339
:102200007E0380937D0320919103309192032F5F91
:102210003F4F25303105A4F430939203209391036E
:102220008330910509F466C084F481309105B9F0DA
:10223000029709F45CC0F0928803E092870328CEED
:10224000D0939203C0939103EBCF8430910509F4AE
:1022500046C0059781F710937E0300937D030E948B
:10226000D407E9CF80917F0390918003019709F013
:102270000FCE0E9414036093930370939403809392
:102280009503909396030E94140380917D0390918F
:102290007E03019790937E0380937D0320919103A9
:1022A0003091920321503109121613066CF43093C9
:1022B00092032093910382309105C9F054F4009762
:1022C00089F0019761F2B7CFF0929203E092910307
:1022D000F2CF8330910571F0049709F0ACCF0E94E2
:1022E0006807A9CFF0927E03E0927D03F8CF0E94A9
:1022F000B007A1CF0E948C079ECF8091850390915B
:102300008603039709F0C4CDC0918103D091820365
:102310002196D0938203C09381030E94140360939B
:1023200093037093940380939503909396030E9474
:102330001403C230D10509F445C034F4219709F0E3
:1023400015CF0E94C30612CFC330D105C1F1249727
:1023500009F00CCF1093820300938103F2CFC09059
:102360008503D090860393E0C916D10409F090CD7F
:10237000C0918103D09182032197D0938203C093AF
:1023800081030E94140360939303709394038093DA
:102390009503909396030E941403C130D10589F2EE
:1023A00044F4CD2B09F0E2CED0928203C092810397
:1023B00006C0C230D10531F0239709F0D7CE0E9474
:1023C0006306D4CE0E949306D1CE6170BCCBC233DB
:1023D00009F418CDC33309F468CDC43309F038CCFF
:1023E000C0908503D090860332E0C316D10409F073
:1023F0002FCC0E94140360939303709394038093F3
:102400009503909396030E941403D0928803C09280
:1024100087031ECCC33209F4D9CEC03309F422CFCE
:10242000C93309F46ACFC83309F499CFCA3209F025
:102430002FCD8091870390918803039730F40E94F9
:102440000507F0928803E0928703809187039091BB
:102450008803059709F01CCD0E94F306F0928803CB
:10246000E0928703E2E0F0E0F0938603E0938503D7
:102470000FCDC23409F4B1CCC13309F0A8CF80919B
:10248000850390918603019709F0E2CB0E94140323
:1024900060939303709394038093950390939603B2
:1024A0000E9414039091000181E0911180E08093DB
:1024B00000016091000186E00E944B020E945806D4
:1024C00060E085E00E94240681E692E00E94F20529
:1024D00061E086E00E9424068BE692E00E94F2050D
:1024E00063E088E00E94240683E891E00E94F20500
:1024F000109388030093870380918F03909190033A
:1025000001969093900380938F03A2CB5058BB27E2
:10251000AA270E949E120C949F130E94911338F0D8
:102520000E94981320F039F49F3F19F426F40C947C
:102530008E130EF4E095E7FB0C948813E92F0E94AC
:10254000B01358F3BA17620773078407950720F092
:1025500079F4A6F50C94D2130EF4E0950B2EBA2F55
:10256000A02D0B01B90190010C01CA01A001112499
:10257000FF27591B99F0593F50F4503E68F11A1645
:10258000F040A22F232F342F4427585FF3CF4695D6
:1025900037952795A795F0405395C9F77EF41F16F8
:1025A000BA0B620B730B840BBAF09150A1F0FF0FC2
:1025B000BB1F661F771F881FC2F70EC0BA0F621FAE
:1025C000731F841F48F4879577956795B795F7959E
:1025D0009E3F08F0B0CF9395880F08F09927EE0F33
:1025E0009795879508950E94641308F481E00895F3
:1025F0000E94B81388F09F5798F0B92F9927B751C8
:10260000B0F0E1F0660F771F881F991F1AF0BA9596
:10261000C9F714C0B13091F00E94D213B1E008950F
:102620000C94D213672F782F8827B85F39F0B93F01
:10263000CCF3869577956795B395D9F73EF4909549
:102640008095709561957F4F8F4F9F4F0895E894C7
:1026500009C097FB3EF490958095709561957F4FEA
:102660008F4F9F4F9923A9F0F92F96E9BB27939598
:10267000F695879577956795B795F111F8CFFAF4A8
:10268000BB0F11F460FF1BC06F5F7F4F8F4F9F4FD9
:1026900016C0882311F096E911C0772321F09EE837
:1026A000872F762F05C0662371F096E8862F70E09D
:1026B00060E02AF09A95660F771F881FDAF7880F77
:1026C0009695879597F90895990F0008550FAA0BCD
:1026D000E0E8FEEF16161706E807F907C0F0121635
:1026E0001306E407F50798F0621B730B840B950B38
:1026F00039F40A2661F0232B242B252B21F408958D
:102700000A2609F4A140A6958FEF811D811D089529
:1027100097F99F6780E870E060E008959FEF80EC94
:10272000089500240A941616170618060906089537
:1027300000240A9412161306140605060895092E9D
:102740000394000C11F4882352F0BB0F40F4BF2B0C
:1027500011F460FF04C06F5F7F4F8F4F9F4F08954C
:1027600057FD9058440F551F59F05F3F71F0479542
:10277000880F97FB991F61F09F3F79F08795089527
:10278000121613061406551FF2CF4695F1DF08C046
:10279000161617061806991FF1CF86957105610563
:1027A00008940895E894BB2766277727CB0197F90B
:1027B00008950E94641308F48FEF08950E94F113A6
:1027C0000C949F130E94911338F00E94981320F0EC
:1027D000952311F00C9488130C948E1311240C94EF
:1027E000D3130E94B01370F3959FC1F3950F50E07F
:1027F000551F629FF001729FBB27F00DB11D639FB3
:10280000AA27F00DB11DAA1F649F6627B00DA11D58
:10281000661F829F2227B00DA11D621F739FB00DFE
:10282000A11D621F839FA00D611D221F749F33276E
:10283000A00D611D231F849F600D211D822F762F07
:102840006A2F11249F5750409AF0F1F088234AF0E4
:10285000EE0FFF1FBB1F661F771F881F9150504050
:10286000A9F79E3F510580F00C9488130C94D31364
:102870005F3FE4F3983ED4F3869577956795B795D7
:10288000F795E7959F5FC1F7FE2B880F911D9695F1
:10289000879597F908950E946413880B990B089502
:1028A000A1E21A2EAA1BBB1BFD010DC0AA1FBB1F54
:1028B000EE1FFF1FA217B307E407F50720F0A21BC6
:1028C000B30BE40BF50B661F771F881F991F1A9433
:1028D00069F760957095809590959B01AC01BD015D
:1028E000CF010895052E97FB1EF400940E948914D1
:1028F00057FD07D00E94501407FC03D04EF40C94EF
:10290000891450954095309521953F4F4F4F5F4F1B
:10291000089590958095709561957F4F8F4F9F4F4B
:1029200008950E949E14B7FF0895821B930B08958B
:10293000EE0FFF1F0590F491E02D0994A29FB001C6
:10294000B39FC001A39F700D811D1124911DB29FE3
:0E295000700D811D1124911D0895F894FFCF84
:10295E0001020304050B0A090831323341343536BE
:10296E0042373839432A30234400004000140054C3
:10297E0000000000008901E9001601D6014701257B
:10298E00013901000000000A05DD049E05B304D6DE
:10299E0004C304B404000000003907E9009E059D3D
:1029AE000500000000B9027902480256656C617399
:1029BE007175657A2043617374616E656461004D53
:1029CE006175726963696F003C2D2D2D3800392DAC
:1029DE002D3E002A20706172612073616C69720055
:1029EE0053616C617A617220416775696C61720026
:1029FE004C756973204765726172646F004665722B
:102A0E006E616E64657A2053616C696E61730056F7
:102A1E00696F6C657461204D617267617269746172
:102A2E0000342953656E736F72204C757A00352908
:102A3E00496E74656772616E7465730031294C4519
:102A4E004420310032294C4544203200332954654C
:102A5E006D706572617475726100792048756D656F
:102A6E00646164002A45717569706F20322A004DC9
:102A7E00656E75204F7063696F6E657300426F747B
:102A8E006F6E20343A2000426F746F6E20333A20FE
:102A9E0000426F746F6E20323A2000426F746F6E78
:102AAE0020313A20006E616E00696E66006F7666A8
:102ABE00004C4544205665726465004F4E2D4F46BE
:102ACE0046004C45442059656C6C6F770046616C2E
:102ADE006C6F20656E206C61206C6563747572611D
:102AEE002064656C2073656E736F722044485421A8
:102AFE00000D0A0048756D656461643A200025007A
:102B0E0054656D70657261747572613A2000430090
:107E0000112484B714BE81FFF0D085E080938100F7
:107E100082E08093C00088E18093C10086E0809377
:107E2000C20080E18093C4008EE0C9D0259A86E02C
:107E300020E33CEF91E0309385002093840096BBD3
:107E4000B09BFECF1D9AA8958150A9F7CC24DD24C4
:107E500088248394B5E0AB2EA1E19A2EF3E0BF2EE7
:107E6000A2D0813461F49FD0082FAFD0023811F036
:107E7000013811F484E001C083E08DD089C08234E0
:107E800011F484E103C0853419F485E0A6D080C0E4
:107E9000853579F488D0E82EFF2485D0082F10E0AE
:107EA000102F00270E291F29000F111F8ED06801E7
:107EB0006FC0863521F484E090D080E0DECF843638
:107EC00009F040C070D06FD0082F6DD080E0C81688
:107ED00080E7D80618F4F601B7BEE895C0E0D1E017
:107EE00062D089930C17E1F7F0E0CF16F0E7DF06D8
:107EF00018F0F601B7BEE89568D007B600FCFDCFD4
:107F0000A601A0E0B1E02C9130E011968C91119780
:107F100090E0982F8827822B932B1296FA010C0160
:107F200087BEE89511244E5F5F4FF1E0A038BF0790
:107F300051F7F601A7BEE89507B600FCFDCF97BE46
:107F4000E89526C08437B1F42ED02DD0F82E2BD052
:107F50003CD0F601EF2C8F010F5F1F4F84911BD097
:107F6000EA94F801C1F70894C11CD11CFA94CF0C13
:107F7000D11C0EC0853739F428D08EE10CD085E9AC
:107F80000AD08FE07ACF813511F488E018D01DD067
:107F900080E101D065CF982F8091C00085FFFCCF94
:107FA0009093C60008958091C00087FFFCCF809118
:107FB000C00084FD01C0A8958091C6000895E0E648
:107FC000F0E098E1908380830895EDDF803219F02E
:107FD00088E0F5DFFFCF84E1DECF1F93182FE3DFCA
:107FE0001150E9F7F2DF1F91089580E0E8DFEE27F6
:047FF000FF270994CA
:027FFE00040479
:0400000300007E007B
:00000001FF
