:10000000C4C10000F3C10000F1C10000EFC1000055
:10001000EDC10000EBC10000E9C10000E7C1000034
:10002000E5C10000E3C10000E1C10000DFC1000044
:100030000C948110DBC10000D9C10000D7C10000C1
:10004000D5C10000D3C10000D1C10000CFC1000064
:10005000CDC10000CBC10000C9C10000DDC500005A
:10006000C5C10000A3C5000078C50000BFC10000E5
:10007000BDC10000BBC10000B9C10000B7C1000094
:10008000B5C10000B3C10000B1C10000AFC10000A4
:10009000ADC10000ABC10000A9C10000A7C10000B4
:1000A000A5C10000A3C10000A1C100009FC10000C4
:1000B0009DC100009BC1000099C1000097C10000D4
:1000C00095C1000093C1000091C100008FC10000E4
:1000D0008DC100008BC1000089C1000087C10000F4
:1000E00085C1000080914404811109C080917F0383
:1000F000823010F00E94BE0ACFD279D2F3CF0FB671
:10010000F8940F92E0914A04F0914B04C681D78194
:10011000CE0102962CD680914304815080934304F3
:10012000809144048150809344040F900FBE8F89C6
:10013000988D0E94460ECE010E94460ED3CFCF93DB
:10014000DF9300D01F921F92CDB7DEB7E091380346
:10015000F0913903F08010E000E0FF2029F00580E5
:10016000F681E02D00811181D1D5C6D56C01809139
:100170002B0390912C03C816D90608F04BC00E949F
:10018000F90DD0922C03C0922B030E94AF0B50E0CC
:1001900040E0BE016F5F7F4F809152039091530307
:1001A0000E94A60E882391F2898187FDF0CF0C81F1
:1001B0001D81D8011A968D919C91892B19F0C80147
:1001C0000296D5D599D57C0180912B0390912C0373
:1001D000E816F90610F40E94F90DF0922C03E09253
:1001E0002B03E981EA3098F60E2E000CFF0BD801A4
:1001F00052969C918827E050FF4F8F4F0C94FB1232
:10020000820182018201BF01A701B901820182013D
:10021000BF01A701D0922C03C0922B03FF2099F1BC
:10022000C016D106C0F10E94AF0BE0913803F091E7
:1002300039030580F681E02DE680F780C70102963C
:1002400096D5D70152968C91529782FF12C01C9678
:100250006D917C91600F711F9801A601C701E1D5D6
:10026000882351F0B801C7010E94CC0D811104C050
:10027000A3D28E7FF701828BD7015096ED91FC912E
:10028000C701199584CFE0913603F091370380813F
:10029000BB24B3948111B12CE0905203F09053032E
:1002A0000FB6F8940F92F701858D8F3F09F4158EE4
:1002B000D7015E968C915E978F3F11F45E961C92EB
:1002C0000F900FBEF701828D811113C0C7014196B7
:1002D00079F26091220370912303645F7F4F27D5E9
:1002E000C8018C199D09BB2011F08FEF9FEF6B2D7A
:1002F000C1D5C701C7D60E94AF0B811148CF0E945C
:10030000BE0A45CF9160F801928B2A813B816485BA
:100310007585620F731FA701C80183D5882309F46F
:1003200036CFD8015096ED91FC91C8011995F8018E
:10033000828982FF2CCF6A817B8184859585680FB5
:10034000791FC8010E94CC0D811121CF91CF9160FE
:10035000F801928B6A817B817587648761157105CD
:1003600009F486CF6E0D7F1D9701A701C80159D5ED
:100370000ECF91FD04C0C8010E94460E08CF9E7F9B
:10038000D80152969C9303CFA91111241FBECFEF21
:10039000D1E2DEBFCDBF00E00CBF13E0A0E0B2E0D1
:1003A000E0EFF7E200E00BBF02C007900D92A2322F
:1003B000B107D9F724E0A2E2B3E001C01D92A33552
:1003C000B207E1F711E0C5ECD1E000E006C02197EB
:1003D0000109802FFE010E94FB12C43CD10780E07E
:1003E0000807A9F70E9483100C94F61309CEAF9268
:1003F000BF92CF92DF92EF92FF920F931F93CF9312
:10040000DF936C017B018B01040F151FEB015E0173
:10041000AE18BF08C017D10759F06991D601ED9108
:10042000FC910190F081E02DC6011995892B79F797
:10043000C501DF91CF911F910F91FF90EF90DF9059
:10044000CF90BF90AF900895FC01538D448D252F20
:1004500030E0842F90E0821B930B541710F0CF965E
:10046000089501970895FC01918D828D981761F090
:10047000A28DAE0FBF2FB11D5D968C91928D9F5FA7
:100480009F73928F90E008958FEF9FEF0895FC0186
:10049000918D828D981731F0828DE80FF11D858D39
:1004A00090E008958FEF9FEF0895FC01918D228DCC
:1004B000892F90E0805C9F4F821B91098F73992751
:1004C000089584EA93E0F1DF21E0892B09F420E02C
:1004D000822F0895FC01A48DA80FB92FB11DA35A36
:1004E000BF4F2C91848D90E001968F739927848F54
:1004F000A689B7892C93A089B1898C918370806477
:100500008C93938D848D981306C00288F389E02D17
:1005100080818F7D80830895EF92FF920F931F93C8
:10052000CF93DF93EC0181E0888F9B8D8C8D9813A6
:100530001AC0E889F989808185FF15C09FB7F894B2
:10054000EE89FF896083E889F989808183708064FE
:1005500080839FBF81E090E0DF91CF911F910F9149
:10056000FF90EF900895F62E0B8D10E00F5F1F4F58
:100570000F731127E02E8C8D8E110BC00FB607FC68
:10058000FACFE889F989808185FFF5CFCE01A2DF16
:10059000F2CFEB8DEC0FFD2FF11DE35AFF4FF082F0
:1005A0009FB7F8940B8FEA89FB8980818062D0CF56
:1005B000CF93DF93EC01888D8823B1F0AA89BB89A2
:1005C000E889F9898C9185FD03C0808186FD0CC086
:1005D0000FB607FCF7CF8C9185FFF2CF808185FFA6
:1005E000EDCFCE0177DFEACFDF91CF91089580E0A4
:1005F00090E0892B21F065DF81110E94000080E0EE
:1006000090E0892B49F080E090E0892B29F00E944E
:10061000000081110E94000080E090E0892B49F0E9
:1006200080E090E0892B29F00E94000081110E9457
:10063000000080E090E0892B49F080E090E0892B79
:1006400029F00E94000081110C94000008953FB72A
:10065000F8948091320390913303A0913403B091C8
:10066000350326B5A89B05C02F3F19F00196A11DA3
:10067000B11D3FBFBA2FA92F982F8827BC01CD01EC
:10068000620F711D811D911D42E0660F771F881F4B
:10069000991F4A95D1F708958F929F92AF92BF927A
:1006A000CF92DF92EF92FF92D2DF4B015C0188EE96
:1006B000C82E83E0D82EE12CF12CC9DF6819790906
:1006C0008A099B09683E734081059105B0F321E0DA
:1006D000C21AD108E108F10888EE880E83E0981E5E
:1006E000A11CB11CC114D104E104F10431F7FF9045
:1006F000EF90DF90CF90BF90AF909F908F90089534
:100700001F9A0895279A2F9A0895FC0101900020BE
:10071000E9F73197AF01481B590BBC0184EA93E01C
:1007200066CECF93DF93F1DFEC0188E192E0EDDF5D
:100730008C0F9D1FDF91CF910895EF92FF920F9341
:100740001F93CF93DF93EC017B018A01888199810C
:10075000009729F02A813B812417350788F4B801D6
:100760006F5F7F4F0E940313009791F099838883F6
:100770001B830A832C813D81232B11F4FC01108201
:100780001D830C83B701888199810E94EF130CC0EF
:1007900088819981009711F00E9472121982188243
:1007A0001D821C821B821A82CE01DF91CF911F9184
:1007B0000F91FF90EF900895F894A4DF2FEF81EE52
:1007C00094E0215080409040E1F700C0000098DFA5
:1007D0002FEF87EA91E6215080409040E1F700C07A
:1007E00000008EDF2FEF81EE94E02150804090409A
:1007F000E1F700C0000084DF2FEF81EE94E021508C
:1008000080409040E1F700C000007ADFD7CFCF935F
:10081000DF93CAE0D0E08BE192E083DF3DDF2197F8
:10082000D1F780E392E07DDFDF91CF910C94540EFD
:10083000CF93DF93C4E1D0E087E392E072DF2CDF57
:100840002197D1F78AE492E06CDFDF91CF910C948D
:10085000540E0F931F93CF93DF9300D000D0CDB7EA
:10086000DEB710E000E081E592E008301105B9F054
:1008700058DF12DF0F5F1F4F0A301105A1F78CE61A
:1008800092E04FDF0E94540E26960FB6F894DEBF1A
:100890000FBECDBFDF91CF911F910F91089535DF2E
:1008A0001A8219821C821B821E821D8245E050E042
:1008B00060E672E0CE01019640DF4FEF5FEFBE01D0
:1008C0006F5F7F4F80912603909127030E94D80C81
:1008D00086E692E026DF89819A81009751F20E9494
:1008E0007212C7CFCF93DF93CAE0D0E083E792E0E4
:1008F00018DFD2DE2197D1F780E892E012DFDF9196
:10090000CF910C94540E87E892E00BDFC5DE87E8A8
:1009100092E007DFC1DE87E892E003DFBDDE82E917
:1009200092E0FFDE0C94540ECF93DF93C5E0D0E04D
:1009300089E992E0F6DEB0DE2197D1F782EA92E013
:10094000F0DEDF91CF910C94540ECF93DF93CAE089
:10095000D0E089EA92E0E5DE9FDE2197D1F780EBD7
:1009600092E0DFDEDF91CF910C94540E0F931F9332
:10097000CF93DF9300D000D0CDB7DEB710E000E01A
:1009800087EB92E0CEDE88DE0530110569F587EB56
:1009900092E0BBDE1A8219821C821B821E821D829B
:1009A00050E040E06AE172E0CE010196C6DE4FEF12
:1009B0005FEFBE016F5F7F4F809126039091270309
:1009C0000E94A60E813051F44D815E8169817A8149
:1009D00084EA93E00CDD88E192E097DE89819A81D8
:1009E000009711F00E9472120F5F1F4F0A3011051D
:1009F00039F688EC92E095DE0E94540E26960FB6EA
:100A0000F894DEBF0FBECDBFDF91CF911F910F9144
:100A100008950F931F93CF93DF93E091B403F09168
:100A2000B50382E08083E091B403F091B5031082B6
:100A3000E091B003F091B1031082E091B203F09124
:100A4000B30380E180831092BC03E091B803F0917E
:100A5000B90316E01083E091B603F091B7038081EB
:100A600080618083E091B603F091B7038081886054
:100A70008083E091B603F091B70380818068808322
:100A8000E091B603F091B70380818F7D80838FEC76
:100A900092E047DE01DE8DE390E00E94540FEC010E
:100AA000009741F04F969983888385E08B8F1C8F48
:100AB000CE0145D2D0932703C093260310E000E077
:100AC00022E04CE350E06CED72E085EA94E00E9495
:100AD000710F21E04CE350E063EE72E084E994E0B2
:100AE0000E94710F21E04CE350E06AEE72E083E86F
:100AF00094E00E94710F21E04CE350E061EF72E05E
:100B000082E794E00E94710F23E04CE350E068EF2D
:100B100072E089E294E00E94710F21E04CE350E022
:100B20006FEF72E086EB94E00E94710F21E04CE3DE
:100B300050E066E073E088E194E00E94710F22E0EB
:100B40004CE350E06DE073E087E094E00E94710FA9
:100B5000DF91CF911F910F9108951F920F920FB6C1
:100B60000F9211240BB60F922F933F934F935F93E5
:100B70006F937F938F939F93AF93BF93EF93FF9365
:100B800084EA93E0A7DCFF91EF91BF91AF919F9131
:100B90008F917F916F915F914F913F912F910F9026
:100BA0000BBE0F900FBE0F901F9018951F920F92C3
:100BB0000FB60F9211240BB60F922F938F939F9322
:100BC000EF93FF93E091B403F091B5038081E0913E
:100BD000BA03F091BB0382FD1DC090818091BD03DB
:100BE0008F5F8F732091BE03821741F0E091BD03A8
:100BF000F0E0EC55FC4F958F8093BD03FF91EF9192
:100C00009F918F912F910F900BBE0F900FBE0F9061
:100C10001F9018958081F2CF1F920F920FB60F92FE
:100C200011242F933F938F939F93AF93BF93809102
:100C30002E0390912F03A0913003B0913103309196
:100C40002D0323E0230F2D3758F50196A11DB11D6B
:100C500020932D0380932E0390932F03A0933003B2
:100C6000B09331038091320390913303A091340308
:100C7000B09135030196A11DB11D8093320390936D
:100C80003303A0933403B0933503BF91AF919F9189
:100C90008F913F912F910F900FBE0F901F9018953D
:100CA00026E8230F0296A11DB11DD2CF80914204E8
:100CB000882331F080914104882321F080E0089559
:100CC00081E0089582E00895E0915603F091570382
:100CD0008081811107C08FEF9FEF90934F03809326
:100CE0004E030895E0915603F09157030580F68175
:100CF000E02D80819181F1CF0FB6F8940F92809111
:100D00007C0390917D030F900FBE08958091410464
:100D10008F5F8093410408950FB6F8940F92FC0101
:100D2000928D0F900FBE81E0911180E00895CF93D6
:100D3000DF939C01FB01DC011196CD91DC91D38303
:100D4000C2838C819D81958384838C819D81DC010C
:100D500013967C936E9312977D836C8331872087E3
:100D6000F90180818F5F8083DF91CF910895CF93C8
:100D7000DF93FC01A085B185828193812481358137
:100D8000EC013D832C83C481D5819B838A8311969A
:100D90008D919C9112978E179F0721F41296DC93E8
:100DA000CE931197118610868C9181508C938C91E3
:100DB000DF91CF9108950F931F93CF93DF938C0111
:100DC000FB0180819181D80113968F3F9807F1F440
:100DD000E801AF81B88512968D919C91139793830A
:100DE0008283EC01FD83EC83B583A4831396FC938B
:100DF000EE93129711870087F80180818F5F8083BF
:100E0000DF91CF911F910F910895D90112962D91E5
:100E10003C911397E9014881598184179507A8F7F8
:100E2000DACFFC0173836283918780874617570767
:100E300088F0421B530B8485958548175907C0F4E9
:100E4000BF016E5F7F4F8091360390913703B3DF10
:100E500080E008954217530718F46217730740F4AF
:100E6000BF016E5F7F4F8091380390913903EFCFC0
:100E700081E00895FF920F931F93CF93DF93EC01CE
:100E8000F62E00917C0310917D03809122039091B6
:100E9000230302966CDFCF3FDC0781F4FF2071F063
:100EA00060912203709123036E5F7F4F88E593E08A
:100EB000DF91CF911F910F91FF9039CFC00FD11FBC
:100EC000E0912203F0912303D383C2836091220334
:100ED00070912303C017D10760F48091540390915F
:100EE00055036E5F7F4FDF91CF911F910F91FF9060
:100EF00062CF80915603909157036E5F7F4F5BDF07
:100F000080914E0390914F03C817D90720F4D093D6
:100F10004F03C0934E03DF91CF911F910F91FF902C
:100F20000895FC010396928381832FEF3FEF348372
:100F30002383968385839087878310820895CF9338
:100F4000DF93EC01892B09F437DC0FB6F8940F928C
:100F5000888199812B8D4C8DBC01249F600D711D62
:100F600011247D836C831A8E9B838A832150330BDB
:100F7000429FB001439F700D1124860F971F9F83DE
:100F80008E838FEF8D8F8E8FCE010896CADFCE01B4
:100F90004196C7DF0F900FBE81E0DF91CF9108959A
:100FA000FC01DB010FB6F8940F9240917C03509145
:100FB0007D032D913C9111972F3F320711F18181D3
:100FC000928160917E037081761749F04817590726
:100FD00030F01D921C9281E00F900FBE0895481BC7
:100FE000590B42175307A8F7241B350B2D933C933D
:100FF00080917E03808380917C0390917D03928316
:10100000818380E0E9CF0F931F93CF93DF93DC01BF
:101010001596ED91FC91C681D781209709F4CCDB20
:101020008E01045F1F4FC801A2DE8091410481112F
:1010300023C00A501109C8019ADE8E899091A3033A
:10104000981710F48093A303B9E08B9FC00111247B
:10105000B80181589C4F6BDEE0912203F09123038D
:101060009E898689891760F481E080932A03DF9145
:10107000CF911F910F910895B80181E693E0EBCFD6
:1010800080E0F5CFEF92FF920F931F93CF93DF9302
:10109000EC010FB6F8940F921E8D7C0181E1E80EF1
:1010A000F11C01E01116D4F08FEF8E8F0F900FBE60
:1010B0000FB6F8940F921D8D7E0188E0E80EF11CAA
:1010C00001E01116ACF08FEF8D8F0F900FBEDF9106
:1010D000CF911F910F91FF90EF90089589898823F8
:1010E00019F3C70190DF811100932A031150DACF61
:1010F0008885882341F3C70186DF811100932A0385
:101100001150DFCFCF93DF93EB01009709F454DB4D
:101110006091220370912303645F7F4F4CDE61E096
:10112000CE01DF91CF91A6CE0F920FB6F8940F9219
:101130000BB60F920CB60F921F9211242F923F9272
:101140004F925F926F927F928F929F92AF92BF92D7
:10115000CF92DF92EF92FF920F931F932F933F93C3
:101160004F935F936F937F938F939F93AF93BF93AF
:10117000CF93DF93EF93FF93A0912203B0912303CA
:101180000DB60D920EB60D9213BE809141048111E1
:1011900027C180917C0390917D03019690937D03FC
:1011A00080937C03009709F063C0E0915603F091AF
:1011B00057032081222361F1F894279A2F9A2FEF69
:1011C00061EE74E0215060407040E1F700C0000023
:1011D0001F9A8FEF97EAA1E681509040A040E1F777
:1011E00000C000001F9ABFEFC1EED4E0B150C04074
:1011F000D040E1F700C000001F9A2FEF61EE74E0CD
:10120000215060407040E1F700C000001F9AD7CF26
:101210002091560330915703409154035091550348
:101220005093570340935603309355032093540330
:1012300020917E032F5F20937E03E0915603F0916F
:1012400057032081211107C02FEF3FEF30934F0349
:1012500020934E030DC0E0915603F0915703058093
:10126000F681E02D2081318130934F0320934E038E
:1012700020914E0330914F038217930710F420E022
:101280009BC020E019E0E0915603F09157033081B4
:10129000311107C08FEF9FEF90934F0380934E0360
:1012A0008BC0E0915603F09157030580F681E02D45
:1012B0000680F781E02D428153818417950728F439
:1012C00050934F0340934E0377C0AF014E5F5F4F83
:1012D000A285B38564817581E680F780EB01FD828C
:1012E000EC82C681D7817B836A8311966D917C9154
:1012F00012974617570721F41296DC93CE93119755
:10130000138612863C9131503C933C91A489B58957
:101310001097F9F066857785E088F188EB01FD820A
:10132000EC82C089D1897B836A831196ED90FC9011
:101330001297BF01645F7F4FE616F70621F41296FD
:10134000DC93CE931197158A148A3C9131503C93CB
:101350003C91A6893091A3033A1710F4A093A303FC
:101360001A9FD0011124BD0161587C4F7B01DB0124
:101370001196CD91DC91D583C4836C817D81778377
:1013800066836C817D81DB0113965C934E9312978B
:101390005D834C83F386E286E70138813F5F3883C3
:1013A000A0912203B0912303468956963C9143179E
:1013B00008F469CF21E067CFE0912203F091230385
:1013C000E689D9E0ED9FF0011124E158FC4F8081BE
:1013D000823008F021E080912A0381110EC00AC0FA
:1013E000809128039091290301969093290380937B
:1013F000280395C0222309F492C0809141048823D8
:1014000021F081E080932A038AC010922A03A091E0
:101410002203B0912303E0912203F09123032D9145
:101420003C918789908D82179307A8F080912203C1
:10143000909123038091220390912303279A2F9A5E
:101440002FEF67EA71E6215060407040E1F700C07D
:1014500000001F9AF5CF8091A30390E069E02EC0B1
:10146000019760F5F894279A2F9ABFEFC1EED4E068
:10147000B150C040D040E1F700C000001F9A2FEFEC
:1014800067EA71E6215060407040E1F700C000005B
:101490001F9A8FEF91EEA4E081509040A040E1F7B9
:1014A00000C000001F9ABFEFC1EED4E0B150C040B1
:1014B000D040E1F700C000001F9AD7CF482F689FA7
:1014C0009001699F300D1124F901E158FC4F5081C2
:1014D000552331F2A181B28112960D90BC91A02DBD
:1014E000B283A1832E573C4FA217B30729F412965B
:1014F0002D913C913283218329E0289FF001299F7F
:10150000F00D1124E158FC4F0180F281E02D86811D
:10151000978190932303809322034093A303A09188
:101520002203B0912303CD91CDBFDD91DEBFFF91AA
:10153000EF91DF91CF91BF91AF919F918F917F916B
:101540006F915F914F913F912F911F910F91FF905C
:10155000EF90DF90CF90BF90AF909F908F907F9053
:101560006F905F904F903F902F901F900F900CBE08
:101570000F900BBE0F900FBE0F9008950F920FB6F5
:10158000F8940F920BB60F920CB60F921F92112483
:101590002F923F924F925F926F927F928F929F9283
:1015A000AF92BF92CF92DF92EF92FF920F931F9371
:1015B0002F933F934F935F936F937F938F939F935B
:1015C000AF93BF93CF93DF93EF93FF93A091220349
:1015D000B09123030DB60D920EB60D928091410489
:1015E000882321F081E080932A038AC010922A0385
:1015F000A0912203B0912303E0912203F0912303F1
:101600002D913C918789908D82179307A8F0809146
:101610002203909123038091220390912303279A20
:101620002F9A2FEF87EA91E6215080409040E1F712
:1016300000C000001F9AF5CF8091A30390E069E0FD
:101640002EC0019760F5F894279A2F9A8FEF91EEAC
:1016500024E0815090402040E1F700C000001F9A34
:101660008FEF97EA21E6815090402040E1F700C0DB
:1016700000001F9A8FEF91EE24E0815090402040AF
:10168000E1F700C000001F9A8FEF91EE24E0815037
:1016900090402040E1F700C000001F9AD7CF482FAC
:1016A000689F9001699F300D1124F901E158FC4FAA
:1016B0005081552331F2A181B28112960D90BC91D7
:1016C000A02DB283A1832E573C4FA217B30729F454
:1016D00012962D913C913283218329E0289FF001BD
:1016E000299FF00D1124E158FC4F0180F281E02D7B
:1016F0008681978190932303809322034093A303D1
:10170000A0912203B0912303CD91CDBFDD91DEBF27
:10171000FF91EF91DF91CF91BF91AF919F918F9109
:101720007F916F915F914F913F912F911F910F91F9
:10173000FF90EF90DF90CF90BF90AF909F908F90F1
:101740007F906F905F904F903F902F901F900F90E1
:101750000CBE0F900BBE0F900FBE0F9008957F929E
:101760008F929F92AF92BF92CF92DF92EF92FF92B1
:101770000F931F93CF93DF9380914104811101C098
:101780001BD80FB6F8940F9280914104815080933A
:10179000410480914104882389F080E00F900FBEBE
:1017A000DF91CF911F910F91FF90EF90DF90CF903D
:1017B000BF90AF909F908F907F9008958091430449
:1017C000882359F3D0E0C0E029E0F22EEE24E39420
:1017D00026C0E0916603F0916703C681D781CE01F0
:1017E0000C96C5DA8E010E5F1F4FC801C0DA8E89D4
:1017F0009091A303981710F48093A3038F9DC001C9
:101800001124B80181589C4F92DAE0912203F091A3
:1018100023039E898689981710F0E0922A0380910D
:1018200061038111D6CFCD2B09F04EDAE090280369
:10183000F0902903E114F10409F4B2C089E0A82E64
:1018400077247394CC24CA94DC2C809141048111B8
:1018500095C0C0917C03D0917D032196D0937D03E8
:10186000C0937C032097E9F4E0915603F09157036D
:101870008081811185CF80915603909157032091EB
:10188000540330915503309357032093560390939C
:1018900055038093540380917E038F5F80937E0372
:1018A00013DA80914E0390914F03B12CC817D907DA
:1018B00008F058C0E0912203F0912303E689AE9E20
:1018C000F0011124E158FC4F8081823010F0BB24DC
:1018D000B39480912A03811103C0BB2009F457C03F
:1018E00070922A0354C0E0915603F091570305808B
:1018F000F681E02D06811781D80112968D919C9179
:10190000C817D90728F490934F0380934E03D2CF82
:101910004801B2E08B0E911CC40129DAF8018489D8
:101920009589892B19F0C8010C9621DAD8015696B1
:101930008C919091A303981710F48093A3038A9D30
:10194000C0011124B40181589C4FF1D9E0912203C8
:10195000F0912303D80156969C918689981710F030
:10196000BB24B394E0915603F09157038081811119
:10197000BACFD0924F03C0924E039CCF80912803E0
:101980009091290301969093290380932803B1E055
:10199000EB1AF10809F059CF10922903109228038D
:1019A00080912A03882309F4F8CEE8DD81E0F6CEA1
:1019B000AF92BF92DF92EF92FF920F931F93CF935C
:1019C000DF9300D01F921F92CDB7DEB78C017B0151
:1019D0005D834C83892B11F40E94DC0367D981114C
:1019E00004C08C819D81892BB9F780E0580128E0E3
:1019F000A20EB11CB5C0E480F580E114F10409F534
:101A000080E0F80115821482D394F801D28E918976
:101A1000992319F0C8014196F6DA8111AFDD0F90D4
:101A20000FBE81E00F900F900F900F900F90DF91FD
:101A3000CF911F910F91FF90EF90DF90BF90AF90EB
:101A400008958091220390912303E816F90609F086
:101A5000C3CFF70182A1882309F4BECF815082A3AE
:101A6000268991A1291761F28111CACF5701F2E0AD
:101A7000AF0EB11CC5017BD9F70181A1868B24E093
:101A800030E0281B3109358724879091A3039817EC
:101A900010F48093A303F9E08F9FC0011124B501D6
:101AA00081589C4F44D981E0ACCF50E0B70182818E
:101AB000938185D6F801848D22813381820F932F03
:101AC000911D93838283248135818217930708F4C3
:101AD00059C0808191819383828354C02C813D8140
:101AE000232B21F40F900FBE80E09CCF811109C001
:101AF00080917E03898380917C0390917D039B83F9
:101B00008A830F900FBE02D90FB6F8940F92F80196
:101B1000858D8F3F09F4158EF801868D8F3F09F46E
:101B2000168E0F900FBEBE016C5F7F4FCE010196E7
:101B300037DA81112DC00FB6F8940F92F801928D0B
:101B4000838D0F900FBE98131FC06C817D81C501DE
:101B5000D9DAC80197DA03DE811101C00FDD81E017
:101B60000FB6F8940F92F801228D938D291708F083
:101B7000B5CFD28C448D411198CF80819181892B32
:101B800009F439CF80E040CFC8017CDAE8DDE7CF47
:101B9000C80178DAE4DDA8CF0F931F93CF93DF93CA
:101BA00000D01F921F92CDB7DEB7009711F40E94AC
:101BB000DC03009152031091530301151105B9F094
:101BC00019827B836A839D838C8370D850E040E0C8
:101BD000BE016F5F7F4FC801EBDE0F900F900F903B
:101BE0000F900F90DF91CF911F910F91089580E09A
:101BF000F4CFEF92FF920F931F93CF93DF93E09177
:101C00003803F09139038081811113C0809136032C
:101C1000909137039093390380933803F0933703FF
:101C2000E0933603DF91CF911F910F91FF90EF90DA
:101C300008950580F681E02D00811181C681D7814C
:101C40007E0182E0E80EF11CC70191D8E889F9898C
:101C5000CE0119958A8982FFD2CF8C859D85800F10
:101C6000911F0817190758F49B838A83D987C8875F
:101C7000B70180913803909139039DD8C0CFB80146
:101C8000CE018ADF8111BBCF0E94DC03CF93DF93AB
:101C9000009739F0EC013AD8CE0124D4DF91CF91EE
:101CA0005ECDDF91CF9108950F931F93CF93DF9374
:101CB0000FB6F8940F92C0912203D09123038E01A6
:101CC0000E5F1F4FC80153D88C899D89892B19F04D
:101CD000CE010C964CD880914E048F5F80934E04B9
:101CE0008091220390912303C817D907E1F4B8012A
:101CF00085E494E01CD8809144048F5F8093440471
:101D00000F900FBE809142048823D9F08091220366
:101D100090912303C817D907A1F480914104882327
:101D200079F00E94DC038091430481508093430446
:101D30008F89988DABDFCE01A9DF0E946406E0CFCA
:101D40001DDCDF91CF911F910F910895AF92BF924B
:101D5000CF92DF92FF920F931F93CF93DF9300D028
:101D60001F921F92CDB7DEB78C016B015D834C8350
:101D7000892B11F40E94DC030E945606811104C0D5
:101D80008C819D81892BB1F780E0580191E1A90EEA
:101D9000B11C3FC02C813D81232B21F40F900FBE3D
:101DA00080E065C0811109C080917E0389838091A4
:101DB0007C0390917D039B838A830F900FBE0E94CA
:101DC00086060FB6F8940F92F801858D8F3F09F4BF
:101DD000158EF801868D8F3F09F4168E0F900FBE79
:101DE000BE016C5F7F4FCE010196DAD8811152C0DF
:101DF000C8010E948C06882309F448C06C817D814B
:101E0000C50180D9C8013ED9AADC811101C0B6DB69
:101E100081E00FB6F8940F92F801F28CFF2009F4DC
:101E2000B9CF448D4423A9F050E086819781840F77
:101E3000951F97838683248135818217930720F02D
:101E40008081918197838683F80166817781C601BD
:101E5000B6D4FA94F801F28E8085882329F0C8015F
:101E60000896D1D881118ADB0F900FBE81E00F90C8
:101E70000F900F900F900F90DF91CF911F910F91C6
:101E8000FF90DF90CF90BF90AF900895C801FAD82F
:101E900066DCBECFC801F6D862DCC8010E948C06A1
:101EA000882309F4B5CF7CCFCF93DF93EC010E9458
:101EB0008606CE017BD2EC0152DC209771F40E94A1
:101EC00082032FEF80E792E0215080409040E1F7BD
:101ED00000C000000E948003F4CFCE01DF91CF91BB
:101EE00008957F928F929F92AF92BF92CF92DF928E
:101EF000EF92FF920F931F93CF93DF93982EA92E0B
:101F0000762E872E7A01B22ECA01CEDF6C01892B84
:101F100009F4D6C088E290E0C7DFEC01892B09F410
:101F2000CDC0D88ECF8AA70165EA70E0C60150D433
:101F300021E0E21AF108EF89F88DEE0DFF1D672D03
:101F4000782DCE0149969B01285F3F4FDB014D91D3
:101F5000BD01DC014D93CD01AB0141505109DA01C6
:101F60004C91442319F06217730781F718A2BE8AB7
:101F7000B9A21AA21B861A861D8A1C8AD987C8870D
:101F800084E090E08B1991099D878C87DB8BCA8B4D
:101F900084E09E012D5D3F4FD9011D928A95E9F79E
:101FA0001FA29082DF011197AC9211971C9211979A
:101FB0001C92119780E88C9311971C9211971C9298
:101FC00011971C9257971C9211971C92B697F98300
:101FD000E8830115110519F0F801D183C0830FB60C
:101FE000F8940F92809143048F5F80934304809113
:101FF000220390912303892B09F071C0D09323030E
:10200000C093220380914304813081F58FE793E0F0
:102010000E94910788E893E00E94910781E993E08C
:102020000E9491078AE993E00E94910783E793E079
:102030000E9491078AE693E00E94910781E693E06F
:102040000E94910785E494E00E94910788E593E05F
:102050000E94910783E793E0909357038093560380
:102060008AE693E0909355038093540380914E0445
:102070008F5F80934E048E899091A303981710F47C
:102080008093A303F9E08F9FC0011124BE016E5F0E
:102090007F4F81589C4F0E9497060F900FBE8091F2
:1020A0004204882349F0E0912203F09123039689AA
:1020B0008E89981708F462DA81E003C0C601E6DD74
:1020C0008FEFDF91CF911F910F91FF90EF90DF90F5
:1020D000CF90BF90AF909F908F907F900895809108
:1020E00042048111C3CFE0912203F09123039E8922
:1020F0008689981708F4BACFD0932303C09322039C
:10210000B5CF12D81895789484B5826084BD84B513
:10211000816084BD85B5826085BD85B5816085BDE2
:1021200080916E00816080936E001092810080919A
:102130008100826080938100809181008160809322
:102140008100809180008160809380008091B10047
:1021500084608093B1008091B00081608093B00072
:1021600080919100826080939100809191008160C4
:102170008093910080919000816080939000809185
:10218000A10082608093A1008091A1008160809372
:10219000A1008091A00081608093A0008091210126
:1021A00082608093210180912101816080932101CF
:1021B0008091200181608093200180917A00846069
:1021C00080937A0080917A00826080937A00809177
:1021D0007A00816080937A0080917A008068809391
:1021E0007A001092C10020910402309105028FEF15
:1021F00091E2821B930B90930102809300020E9454
:10220000090500E513E020E040EC50E064E173E0F4
:1022100082E790E066DE813009F098C00FB6F8944E
:102220000F928091520390915303892B41F583E4DF
:1022300093E00E9491078AE393E00E94910783E470
:1022400093E090933903809338038AE393E090936B
:1022500037038093360381E590E026DEEC0100979A
:1022600051F04F96998388838AE08B8F85E08C8F1D
:10227000CE010E949F07D0935303C09352030F9047
:102280000FBE8091520390915303892B61F00CE4AF
:1022900013E023E045E550E069E173E08FE990E069
:1022A00020DE811102C00E94DC03813009F04EC0A3
:1022B000F8942FEF3FEF30934F0320934E0380931A
:1022C000420410927D0310927C03A89588E190EC63
:1022D0000FB6F894A895809360000FBE90936000AD
:1022E000A0912203B0912303CD91CDBFDD91DEBF3C
:1022F000FF91EF91DF91CF91BF91AF919F918F911E
:102300007F916F915F914F913F912F911F910F910D
:10231000FF90EF90DF90CF90BF90AF909F908F9005
:102320007F906F905F904F903F902F901F900F90F5
:102330000CBE0F900BBE0F900FBE0F9008950E9421
:1023400009050E944C030E94F702FBCF8F3FB9F7AB
:10235000AACFE4EAF3E01382128288EE93E0A0E0D1
:10236000B0E084839583A683B7838AE092E091836B
:10237000808385EC90E09587848784EC90E0978754
:10238000868780EC90E0918B808B81EC90E0938B42
:10239000828B82EC90E0958B848B86EC90E0978B1F
:1023A000868B118E128E138E148E08950F931F93A9
:1023B000CF93DF938230910510F482E090E0E091BA
:1023C0005104F091520430E020E0B0E0A0E03097FA
:1023D00099F42115310509F44AC0281B390B243022
:1023E0003105D8F58A819B816115710589F1FB0161
:1023F00093838283FE0111C0408151810281138148
:1024000048175907E0F04817590799F4109761F0F9
:1024100012960C93129713961C933296CF01DF916C
:10242000CF911F910F91089500935104109352047E
:10243000F4CF2115310551F04217530738F0A901A7
:10244000DB019A01BD01DF01F801C1CFEF01F9CF36
:102450009093520480935104CDCFFE01E20FF31FFD
:10246000819391932250310939832883D7CF2091CA
:102470004F0430915004232B41F4209102023091FB
:1024800003023093500420934F04209100023091B6
:1024900001022115310541F42DB73EB740910402E8
:1024A00050910502241B350BE0914F04F09150042C
:1024B000E217F307A0F42E1B3F0B2817390778F01B
:1024C000AC014E5F5F4F2417350748F04E0F5F1F7A
:1024D0005093500440934F04819391939FCFF0E029
:1024E000E0E09CCFCF93DF930097E9F0FC013297B7
:1024F00013821282A0915104B0915204ED0130E098
:1025000020E01097A1F420813181820F931F209148
:102510004F04309150042817390709F061C0F09337
:102520005004E0934F04DF91CF910895EA01CE1754
:10253000DF07E8F54A815B819E0141155105B1F73E
:10254000E901FB83EA8349915991C40FD51FEC1728
:10255000FD0761F4808191810296840F951FE90146
:1025600099838883828193819B838A83F0E0E0E072
:1025700012968D919C9113970097B9F52D913C91EE
:102580001197CD010296820F931F20914F04309135
:1025900050042817390739F6309751F51092520434
:1025A00010925104B0935004A0934F04BCCFD38336
:1025B000C28340815181840F951FC817D90761F4E8
:1025C0004E5F5F4F88819981480F591F5183408327
:1025D0008A819B81938382832115310509F0B0CFD5
:1025E000F0935204E09351049ECFFD01DC01C0CF73
:1025F00013821282D7CFEE0FFF1F881F8BBF079069
:10260000F691E02D19944F925F926F927F928F9284
:102610009F92AF92BF92CF92DF92EF92FF920F9371
:102620001F93CF93DF938C01009791F4CB01DF913F
:10263000CF911F910F91FF90EF90DF90CF90BF90BF
:10264000AF909F908F907F906F905F904F90AECEA5
:10265000FC01E60FF71F9C0122503109E217F30736
:1026600008F4AAC0D901CD91DC911197C617D707FC
:1026700018F1C530D10570F0CE0104978617970781
:1026800048F0C61BD70B2297C193D1936D937C93CF
:10269000CF0128DFC801DF91CF911F910F91FF90EB
:1026A000EF90DF90CF90BF90AF909F908F907F90F2
:1026B0006F905F904F9008955B01AC1ABD0A4C017A
:1026C0008C0E9D1EA0915104B0915204512C412CAE
:1026D000F12CE12C109731F580914F04909150042A
:1026E0008815990509F05CC04616570608F058C0D1
:1026F0008091000290910102009741F48DB79EB73E
:102700004091040250910502841B950BE817F907CC
:1027100008F052C0F0935004E0934F04F901718324
:102720006083B8CF8D919C91119712966C901297FF
:1027300013967C901397A815B90559F56C0142E0E2
:10274000C40ED11CCA14DB0420F1AC014A195B0988
:10275000DA011296159780F062827382518340836A
:10276000D9016D937C93E114F10471F0D7011396B4
:10277000FC93EE9312978ECF22968C0F9D1FF9013A
:1027800091838083F301EFCFF0935204E0935104DF
:1027900081CF4816590608F42C017D01D3019ACF48
:1027A000CB0104DE7C01009739F0AE01B80107D0FF
:1027B000C80198DE87016ECF10E000E06BCFFB010F
:1027C000DC0102C001900D9241505040D8F70895AD
:1027D000DC0101C06D9341505040E0F70895FB01CA
:1027E000DC0101900D920020E1F70895F894FFCFED
:1027F000000053048000000000008C02F701240256
:10280000D8025502330247020D0A002D2D2D2D2D21
:102810002D2D2D2D2D2D2D2D2D2D2D2D2030380014
:102820002D2D3E203038002D2D2D2D2D2D2D2D2DF3
:102830002D2D2D2D2D2D203037002D2D3E203037E4
:10284000002D2D2D2D2D2D2D2D2D2D2D2030350014
:102850005B3C2D365D005B2D3E365D002D2D3E2010
:102860003035002D2D2D2D2D2D2D2D2D20303400EA
:102870002D2D3E203034002D2D2D2D2D2D2D2030B1
:1028800033002D2D3E203033002D2D2D2D2D2030C9
:1028900032002D2D3E203032002D2D2D20303100E4
:1028A0002D2D3E203031002D2D2D2D2D2D2D2D2D7A
:1028B0002D2D2D2D203036002D2D3E203036002D93
:1028C0002D20494E4943494F202D2D0054617265FA
:1028D0006131005461726561320054617265613327
:1028E0000054617265613400546172656135005451
:1028F00061726561360054617265613700546172BE
:102900006561380049444C4500546D72205376632C
:022910000000C5
:020000023000CC
:10E000000D9489F10D94B2F10D94B2F10D94B2F129
:10E010000D94B2F10D94B2F10D94B2F10D94B2F1F0
:10E020000D94B2F10D94B2F10D94B2F10D94B2F1E0
:10E030000D94B2F10D94B2F10D94B2F10D94B2F1D0
:10E040000D94B2F10D94B2F10D94B2F10D94B2F1C0
:10E050000D94B2F10D94B2F10D94B2F10D94B2F1B0
:10E060000D94B2F10D94B2F10D94B2F10D94B2F1A0
:10E070000D94B2F10D94B2F10D94B2F10D94B2F190
:10E080000D94B2F10D94B2F10D94B2F10D94B2F180
:10E090000D94B2F10D94B2F10D94B2F10D94B2F170
:10E0A0000D94B2F10D94B2F10D94B2F10D94B2F160
:10E0B0000D94B2F10D94B2F10D94B2F10D94B2F150
:10E0C0000D94B2F10D94B2F10D94B2F10D94B2F140
:10E0D0000D94B2F10D94B2F10D94B2F10D94B2F130
:10E0E0000D94B2F141546D656761323536300041AF
:10E0F000726475696E6F206578706C6F72657220DE
:10E1000073746B3530305632206279204D4C530099
:10E11000426F6F746C6F616465723E004875683F52
:10E1200000436F6D70696C6564206F6E203D200048
:10E130004350552054797065202020203D20005FF9
:10E140005F4156525F415243485F5F3D2000415658
:10E1500052204C696243205665723D20004743437C
:10E160002056657273696F6E203D20004350552024
:10E1700049442020202020203D20004C6F7720663D
:10E18000757365202020203D20004869676820665F
:10E190007573652020203D200045787420667573D6
:10E1A00065202020203D20004C6F636B2066757336
:10E1B000652020203D20004D617220203720323024
:10E1C000313300312E362E3800342E332E350056A2
:10E1D00023202020414444522020206F7020636F70
:10E1E00064652020202020696E73747275637469E1
:10E1F0006F6E2061646472202020496E74657272B3
:10E20000757074006E6F20766563746F7200726A49
:10E210006D702020006A6D70200057686174207056
:10E220006F72743A00506F7274206E6F7420737541
:10E2300070706F72746564004D7573742062652030
:10E2400061206C6574746572002000577269747483
:10E25000696E672045450052656164696E672045B7
:10E26000450045452065727220636E743D00504F35
:10E27000525400303D5A65726F2061646472003FF1
:10E280003D43505520737461747300403D454550C3
:10E29000524F4D207465737400423D426C696E6B41
:10E2A000204C454400453D44756D70204545505215
:10E2B0004F4D00463D44756D7020464C415348001B
:10E2C000483D48656C70004C3D4C69737420492F83
:10E2D0004F20506F72747300513D51756974005234
:10E2E0003D44756D702052414D00563D73686F7707
:10E2F00020696E7465727275707420566563746FF0
:10E30000727300593D506F727420626C696E6B00BD
:10E310002A0011241FBECFEFD1E2DEBFCDBF01E046
:10E320000CBF12E0A0E0B2E0EEE1FDEF03E00BBFB6
:10E3300002C007900D92A030B107D9F712E0A0E01B
:10E34000B2E001C01D92AE30B107E1F70F9460F367
:10E350000D948DFE01E20EBF0FEF0DBF11241FBE05
:10E360000D9460F30D9400F020E030E040ED57E0B4
:10E3700005C0FA013197F1F72F5F3F4F2817390792
:10E38000C0F308959C01260F311DC901A0E0B0E043
:10E390002F5F3F4FABBFFC018791882361F08093D3
:10E3A000C6008091C00086FFFCCF8091C0008064D1
:10E3B0008093C000EACF08958DE08093C6008091DD
:10E3C000C00086FFFCCF8091C00080648093C000B5
:10E3D0008AE08093C6008091C00086FFFCCF8091C8
:10E3E000C00080648093C00008950F94C2F10F9420
:10E3F000DCF10895FC019081992359F09093C600B7
:10E400008091C00086FFFCCF8091C0008064809323
:10E41000C0003196992379F70895282F982F929567
:10E420009F70892F805D8A3308F0895F8093C600D2
:10E430008091C00086FFFCCF8091C00080648093F3
:10E44000C000822F8F70982F905D9A3308F0995FEB
:10E450009093C6008091C00086FFFCCF8091C000E1
:10E4600080648093C00008959C01FB01853691056E
:10E470001CF46330710594F0C90164E670E00F94F8
:10E480002EFE605D7F4F6093C6008091C00086FFC6
:10E49000FCCF8091C00080648093C0002B30310598
:10E4A00014F43297B4F0C90164E670E00F942EFEC4
:10E4B0006AE070E00F942EFE605D7F4F6093C600AF
:10E4C0008091C00086FFFCCF8091C0008064809363
:10E4D000C000C9016AE070E00F942EFEC0968093E0
:10E4E000C6008091C00086FFFCCF8091C000806490
:10E4F0008093C00008951F93182F8EE692EE60E07F
:10E500000F94C2F11093C6008091C00086FFFCCF2B
:10E510008091C00080648093C0000F94DCF11F9153
:10E5200008952F923F924F925F926F927F928F92B7
:10E530009F92AF92BF92CF92DF92EF92FF920F9392
:10E540001F93DF93CF93CDB7DEB762970FB6F894E2
:10E55000DEBF0FBECDBF382E622ECA01DB015C01CB
:10E560006D01772420E2222E2E010894411C511CBB
:10E570008BC081E0A81680E0B80681E0C80680E084
:10E58000D80628F0C601AA27BB270F940DF2BB2797
:10E59000AD2D9C2D8B2D0F940DF28A2D0F940DF225
:10E5A0002092C6008091C00086FFFCCF8091C00001
:10E5B00080648093C0009DE29093C6008091C0006B
:10E5C00086FFFCCF8091C00080648093C0002092C1
:10E5D000C6008091C00086FFFCCF8091C00080649F
:10E5E0008093C00019828601750188249924A1E0D6
:10E5F0003A1651F03A1620F0B2E03B1661F409C029
:10E600000BBFF701779007C0C7010F9477FE782EF4
:10E6100002C0F7017080872D0F940DF22092C60082
:10E620008091C00086FFFCCF8091C0008064809301
:10E63000C000872D8052F401EF70F0708F3520F408
:10E64000E40DF51D708204C0E40DF51D8EE280839B
:10E650000894E11CF11C011D111D0894811C911CE2
:10E6600090E18916910409F0C2CF80E190E0A0E02A
:10E67000B0E0A80EB91ECA1EDB1E198AC2010F9493
:10E68000FAF10F94DCF16A94662009F072CF629679
:10E690000FB6F894DEBF0FBECDBFCF91DF911F91B3
:10E6A0000F91FF90EF90DF90CF90BF90AF909F9031
:10E6B0008F907F906F905F904F903F902F90089534
:10E6C0002F923F924F925F926F927F928F929F9282
:10E6D000AF92BF92CF92DF92EF92FF920F931F9370
:10E6E000DF93CF93CDB7DEB7CD53D1400FB6F894BB
:10E6F000DEBF0FBECDBF01E20EBF0FEF0DBF94B75F
:10E70000F894A89514BE80916000886180936000A1
:10E7100010926000789493FF05C0E0910002F091A0
:10E7200001021995279A2F9A8091C00082608093E8
:10E73000C00080E18093C40088E18093C1000000A4
:10E74000EE24FF24870144E0A42EB12CCC24DD2448
:10E7500024C0C5010197F1F70894E11CF11C011DCB
:10E76000111D21E2E2162EE4F20620E0020720E06D
:10E77000120718F031E0C32ED12CC801B70127ECE5
:10E780003BE140E050E00F9441FE611571058105C9
:10E79000910519F485B1805885B98091C00087FD35
:10E7A00003C0C114D104A9F2A6014F5F5F4FC25E3E
:10E7B000DE4F59834883CE51D140C25EDE4F8881FF
:10E7C0009981CE51D140019711F00D9410FEC05D9A
:10E7D000DE4F19821882C053D14060E0C15DDE4F28
:10E7E0001882CF52D14088249924C35DDE4F19820C
:10E7F0001882CD52D140C05EDE4F188219821A8233
:10E800001B82C052D140CE5CDE4F188219821A8220
:10E810001B82C253D140EE24FF2487010BBFF701B6
:10E8200007911691C45CDE4F19830883CC53D14005
:10E830000D940BFEC25EDE4F28813981CE51D1404E
:10E840002130310509F52091C600C25EDE4F1982E4
:10E850001882CE51D14022C02F5F3F4F4F4F5F4FA4
:10E86000213082E138078AE7480780E0580780F0C6
:10E87000C45CDE4FE881F981CC53D140EF5FFF4F9C
:10E8800019F0EE27FF27099420E030E040E050E047
:10E890008091C00087FFE0CF2091C600C35DDE4FAE
:10E8A00048815981CD52D1404F5F5F4FC35DDE4FEC
:10E8B00059834883CD52D140213209F063C64A3092
:10E8C000510508F05FC60894811C911C53E0851621
:10E8D000910409F059C600E010E018C081E280936D
:10E8E000C6008091C00086FFFCCF8091C00080648C
:10E8F0008093C0002F5F3F4F2931310579F70F9486
:10E90000DCF10F5F1F4F0530110519F020E030E0FA
:10E91000E5CF10920A0210920B0210920C02109294
:10E920000D02109206021092070210920802109235
:10E930000902109202021092030210920402109235
:10E9400005028FEE90EE60E00F94F5F180E191EE1C
:10E9500060E00F94C2F18091C00087FFFCCF9091DE
:10E96000C600903608F09F759032B8F09093C600BC
:10E970008091C00086FFFCCF8091C00080648093AE
:10E98000C000A0E2A093C6008091C00086FFFCCF2B
:10E990008091C00080648093C000983409F4D7C18E
:10E9A0009934B8F4923409F459C1933458F490333B
:10E9B00019F1903308F4E3C59F33A1F1903409F0C5
:10E9C000DEC5BDC0953409F470C1963409F0D7C5D1
:10E9D00098C1923509F42BC2933538F49C3409F46C
:10E9E000F5C1913509F0CBC518C2963509F445C279
:10E9F000993509F0C4C567C483E792EE62E00F94CD
:10EA0000F5F110920602109207021092080210927D
:10EA1000090210920A0210920B0210920C0210923C
:10EA20000D0213C18FE792EE62E00F94F5F18FEEC5
:10EA300090EE60E00F94F5F181E291EE60E00F94CA
:10EA4000C2F187EB91EE60E00F94F5F180E391EE77
:10EA500060E00F94C2F184EE90EE60E00F94F5F167
:10EA60008FE391EE60E00F94C2F186E090E061E008
:10EA700070E00F9434F20F94DCF18DE591EE60E0DC
:10EA80000F94C2F189EC91EE60E00F94F5F18EE401
:10EA900091EE60E00F94C2F183EC91EE60E00F9490
:10EAA000F5F18CE691EE60E00F94C2F18EE10F94E7
:10EAB0000DF288E90F940DF281E00F940DF20F949E
:10EAC000DCF18BE791EE60E00F94C2F119E0E0E039
:10EAD000F0E010935700E4918E2F0F940DF20F94F5
:10EAE000DCF18AE891EE60E00F94C2F1E3E0F0E03F
:10EAF00010935700E4918E2F0F940DF20F94DCF1D8
:10EB000089E991EE60E00F94C2F1E2E0F0E0109349
:10EB10005700E4918E2F0F940DF20F94DCF188EAE8
:10EB200091EE60E00F94C2F1E1E0F0E01093570045
:10EB30001491812F0F940DF20F94DCF107CF8BE825
:10EB400092EE62E00F94F5F18BE492EE60E00F94A8
:10EB5000F5F10F94DCF100E010E019C0C8016F2D51
:10EB60000F947FFEFF2031F489E492EE60E00F9471
:10EB7000C2F10BC0F092C6008091C00086FFFCCFAE
:10EB80008091C00080648093C0000F5F1F4FC80158
:10EB900081519F41A0E0B0E0ABBFFC01F790BAE229
:10EBA000FB1621F0E2E000301E07C1F60F94DCF105
:10EBB0000F94DCF187E592EE60E00F94F5F10F948D
:10EBC000DCF1CC24DD2400E010E01EC0C8010F946D
:10EBD00077FEF82E882331F489E492EE60E00F94FA
:10EBE000C2F10BC08093C6008091C00086FFFCCFAD
:10EBF0008091C00080648093C000FE1419F00894D6
:10EC0000C11CD11C0F5F1F4FC80181519F41A0E063
:10EC1000B0E0ABBFFC01E790FAE2EF1621F022E092
:10EC20000030120799F60F94DCF10F94DCF182E6C4
:10EC300092EE60E00F94C2F1C60161E070E00F94C3
:10EC400034F20F94DCF10F94DCF110920202109276
:10EC50000302109204021092050278CE89E992EE26
:10EC600062E00F94F5F1279A2F9A16C02F9880E052
:10EC700090E0E0EDF7E03197F1F7019684369105E9
:10EC8000C1F72F9A80E090E0E0EDF7E03197F1F7DF
:10EC9000019684369105C1F78091C00087FFE6CFC9
:10ECA0008091C00087FFFCCF64C485EA92EE62E0E9
:10ECB0000F94F5F140910202509103026091040219
:10ECC0007091050281E020E10F9491F2809102029F
:10ECD00090910302A0910402B091050280509F4FD1
:10ECE000AF4FBF4F8093020290930302A0930402A0
:10ECF000B093050280509041A040B04008F426CE69
:10ED0000A4CF83EB92EE62E00F94F5F140910602FE
:10ED100050910702609108027091090280E020E1A1
:10ED20000F9491F28091060290910702A09108023F
:10ED3000B091090280509F4FAF4FBF4F80930602A2
:10ED400090930702A0930802B0930902FFCD80ECD4
:10ED500092EE62E00F94F5F183E792EE60E00F949B
:10ED6000F5F18FE792EE60E00F94F5F18BE892EE0B
:10ED700060E00F94F5F189E992EE60E00F94F5F10F
:10ED800085EA92EE60E00F94F5F183EB92EE60E09D
:10ED90000F94F5F180EC92EE60E00F94F5F187ECC2
:10EDA00092EE60E00F94F5F188ED92EE60E00F9442
:10EDB000F5F18FED92EE60E00F94F5F18AEE92EEB0
:10EDC00060E00F94F5F183E093EEBDCD87EC92EE19
:10EDD00062E00F94F5F181E40F947BF282E40F94EA
:10EDE0007BF283E40F947BF284E40F947BF285E45E
:10EDF0000F947BF286E40F947BF287E40F947BF20E
:10EE000088E40F947BF28AE40F947BF28BE40F94F6
:10EE10007BF28CE40F947BF299CD88ED92EE62E068
:10EE20000F94F5F1772473948824992409C48FED05
:10EE300092EE62E00F94F5F140910A0250910B02BC
:10EE400060910C0270910D0282E020E10F9491F22A
:10EE500080910A0290910B02A0910C02B0910D02D8
:10EE600080509F4FAF4FBF4F80930A0290930B0289
:10EE7000A0930C02B0930D0269CD8AEE92EE62E08F
:10EE80000F94F5F184EE90EE60E00F94F5F18FECC5
:10EE900091EE60E00F94F5F1662477244301CC5D98
:10EEA000DE4F19821882C452D140D401C301B695F5
:10EEB000A79597958795CA5DDE4F88839983AA8326
:10EEC000BB83C652D140CC5DDE4FA881B981C4520C
:10EED000D1401196CC5DDE4FB983A883C452D14096
:10EEE000CD0162E070E00F9434F2B0E2B093C6005E
:10EEF0008091C00086FFFCCF8091C0008064809329
:10EF0000C000EDE2E093C6008091C00086FFFCCF18
:10EF10008091C00080648093C000F0E2F093C6004E
:10EF20008091C00086FFFCCF8091C00080648093F8
:10EF3000C000CA5DDE4FE880F9800A811B81C6529D
:10EF4000D140BB27A12F902F8F2D0F940DF2CA5DBA
:10EF5000DE4F8881C652D1400F940DF2B0E2FB2EF5
:10EF6000F092C6008091C00086FFFCCF8091C00067
:10EF700080648093C0000DE30093C6008091C000C0
:10EF800086FFFCCF8091C00080648093C00010E2B7
:10EF90001093C6008091C00086FFFCCF8091C00016
:10EFA00080648093C0008BBEF3012791C65DDE4F65
:10EFB0002883CA52D140A22EBB24CC24DD2408943D
:10EFC000611C711C811C911C8BBEF3018791282E42
:10EFD0003324442455240894611C711C811C911C09
:10EFE0008BBEF3013791C55DDE4F3883CB52D140E4
:10EFF0000894611C711C811C911C8BBEF30147910C
:10F00000C45DDE4F4883CC52D140ADEFEA2EAFEF66
:10F01000FA2EAFEF0A2FAFEF1A2F6E0C7F1C801E57
:10F02000911E142D032DF22CEE24EA0CFB1C0C1D5A
:10F030001D1D0F940DF220E22093C6008091C000A8
:10F0400086FFFCCF8091C00080648093C000C65DC5
:10F05000DE4F8881CA52D1400F940DF230E23093D6
:10F06000C6008091C00086FFFCCF8091C000806404
:10F070008093C000C45DDE4F8881CC52D1400F9494
:10F080000DF240E24093C6008091C00086FFFCCFA5
:10F090008091C00080648093C000C55DDE4F888190
:10F0A000CB52D1400F940DF250E25093C6008091A4
:10F0B000C00086FFFCCF8091C00080648093C000B8
:10F0C0008FEFE8168FEFF80680E0080780E018075A
:10F0D00031F484E092EE60E00F94C2F1DFC0D80119
:10F0E000C7018070907CA070B0708050904CA040A0
:10F0F000B040D1F52FEF3FE340E050E0E222F322B1
:10F1000004231523CA5DDE4FA880B980CA80DB8046
:10F11000C652D140AE0CBF1CC01ED11EAA0CBB1CD7
:10F12000CC1CDD1C8EE092EE60E00F94C2F1BB2798
:10F13000A12F902F8F2D0F940DF28E2D0F940DF285
:10F1400030E23093C6008091C00086FFFCCF8091F2
:10F15000C00080648093C0004EE34093C60080915D
:10F16000C00086FFFCCF87C08EE09EEFA0E0B0E03D
:10F17000E822F9220A231B239CE0E91694E9F90608
:10F1800090E0090790E0190709F088C0C45DDE4FE0
:10F19000A881CC52D140EA2EFF2400E010E0102FCD
:10F1A0000F2DFE2CEE24C55DDE4FB881CB52D14031
:10F1B000EB0EF11C011D111DD601C501817090706F
:10F1C000A070B070DC0199278827E80EF91E0A1F8D
:10F1D0001B1F20EF30E040E050E0A222B322C42207
:10F1E000D52241E1AA0CBB1CCC1CDD1C4A95D1F7F1
:10F1F000EA0CFB1C0C1D1D1D81E090E0A0E0B0E0BE
:10F20000282239224A225B2235E1220C331C441C7D
:10F21000551C3A95D1F7E20CF31C041D151D57013E
:10F220006801AA0CBB1CCC1CDD1C85E192EE60E0E1
:10F230000F94C2F1C801AA27BB270F940DF2BB2778
:10F24000A12F902F8F2D0F940DF28E2D0F940DF274
:10F2500090E29093C6008091C00086FFFCCF809121
:10F26000C00080648093C000AEE3A093C60080918C
:10F27000C00086FFFCCF8091C00080648093C000F6
:10F28000C601AA27BB270F940DF2BB27AD2D9C2DDD
:10F290008B2D0F940DF28A2D0F940DF20F94DCF14B
:10F2A000CC5DDE4FE881F981C452D140F99709F471
:10F2B0004DCBF4E0EF2EF12C012D112D6E0C7F1CA7
:10F2C000801E911EF2CD83E093EE62E00F94F5F183
:10F2D0008AE192EE60E00F94C2F18091C00087FF56
:10F2E000FCCF1091C6001F751093C6008091C0001E
:10F2F00086FFFCCF8091C00080648093C0000F9493
:10F30000DCF1812F81548A3108F036C1163409F4BA
:10F3100095C0173490F4133409F44EC0143430F40B
:10F320001134F1F0123409F01DC130C0143409F465
:10F3300059C0153409F016C16BC01A3409F4C4C0A1
:10F340001B3438F4173409F48FC0183409F00AC19B
:10F35000A1C01B3409F4D2C01C3409F003C1E8C0B9
:10F360008FEF81B90DC082B1809582B980E090E0C5
:10F37000E0EDF7E03197F1F70196883C9105C1F790
:10F380008091C00087FFEFCF12B8EFC08FEF84B934
:10F390000DC085B1809585B980E090E0E0EDF7E0A3
:10F3A0003197F1F70196883C9105C1F78091C00033
:10F3B00087FFEFCF15B8D9C08FEF87B90DC088B1DF
:10F3C000809588B980E090E0E0EDF7E03197F1F7C3
:10F3D0000196883C9105C1F78091C00087FFEFCF6F
:10F3E00018B8C3C08FEF8AB90DC08BB180958BB9A7
:10F3F00080E090E0E0EDF7E03197F1F70196883C8E
:10F400009105C1F78091C00087FFEFCF1BB8ADC059
:10F410008FEF8DB90DC08EB180958EB980E090E0F0
:10F42000E0EDF7E03197F1F70196883C9105C1F7DF
:10F430008091C00087FFEFCF1EB897C08FEF80BBD1
:10F440000DC081B3809581BB80E090E0E0EDF7E0F6
:10F450003197F1F70196883C9105C1F78091C00082
:10F4600087FFEFCF11BA81C08FEF83BB0DC084B38C
:10F47000809584BB80E090E0E0EDF7E03197F1F714
:10F480000196883C9105C1F78091C00087FFEFCFBE
:10F4900014BA6BC08FEF809301010FC080910201FD
:10F4A00080958093020180E090E0E0EDF7E03197F5
:10F4B000F1F70196883C9105C1F78091C00087FF64
:10F4C000EDCF1092020151C08FEF809304010FC065
:10F4D0008091050180958093050180E090E0E0ED4A
:10F4E000F7E03197F1F70196883C9105C1F78091DB
:10F4F000C00087FFEDCF1092050137C08FEF8093DA
:10F5000007010FC08091080180958093080180E079
:10F5100090E0E0EDF7E03197F1F70196883C910536
:10F52000C1F78091C00087FFEDCF109208011DC088
:10F530008FEF80930A010FC080910B01809580931B
:10F540000B0180E090E0E0EDF7E03197F1F70196F4
:10F55000883C9105C1F78091C00087FFEDCF1092E4
:10F560000B0103C085E292EEEEC98091C00087FFD7
:10F57000FCCF8091C600EAC988E392EEE4C98CE131
:10F5800091EEE1C988249924933011F1943028F444
:10F59000913089F09230B8F408C0953061F195301F
:10F5A000F0F0963009F048C043C02B3109F042C951
:10F5B00091E06BE13FC96227C15DDE4F2883CF52E6
:10F5C000D14092E037C9B22FA0E0622793E032C960
:10F5D000822F90E0A82BB92B622794E02BC92E3004
:10F5E00009F039C3622795E0C05DDE4F19821882A9
:10F5F000C053D1401FC9E1E0F0E0EC0FFD1FC05D3A
:10F60000DE4F08811981C053D140E00FF11F2083E4
:10F610000F5F1F4FC05DDE4F19830883C053D14079
:10F6200062270A171B0709F005C9D80196E002C92D
:10F63000261709F010C303C0973009F0FBC87724E0
:10F640009981933109F412C19431C8F4963009F4C8
:10F65000D8C0973050F4923009F406C1933009F4C1
:10F660006DC0913009F059C253C0913109F477C08F
:10F67000923108F0BBC0903109F04FC2F5C098310B
:10F6800009F487C0993150F4953109F4EFC09531F0
:10F6900008F4C6C1963109F040C2C2C19A3109F4DA
:10F6A0006CC09A3108F491C09B3109F45BC09D3164
:10F6B00009F033C29D81903359F48F81882311F46E
:10F6C0009EE11CC0813011F091E018C098E916C08D
:10F6D000892F807591F0903539F4E0E0F0E089E011
:10F6E0008093570094910AC0983539F4E3E0F0E034
:10F6F00089E080935700949101C090E01A821B82A8
:10F700008D818C831D829E831F8227E030E009C299
:10F710001A8288E08B8381E48C8386E58D8382E581
:10F720008E8389E48F8383E5888780E589878FE5E9
:10F730008A8782E38B872BE030E0F3C18A818139AD
:10F7400041F0823941F0803911F48FE005C080E04A
:10F7500003C082E001C08AE01A828B8344C0772410
:10F76000739482C08D81882311F48EE12CC0813086
:10F7700011F081E028C088E926C01A82E1E0F0E0BB
:10F7800089E08093570084918B831C8224E030E0D1
:10F79000C8C18B81803589F48C81883039F4E2E0EE
:10F7A000F0E089E08093570084910DC0E0E0F0E044
:10F7B00089E080935700849106C0E3E0F0E089E09F
:10F7C0008093570084911A82DFCF8D81836C99E0FA
:10F7D000E1E0F0E0082E90935700E89507B600FCB2
:10F7E000FDCF1A821B8223E030E09BC180EC8A832C
:10F7F000CE5CDE4F188219821A821B82C253D1401E
:10F800008EC18A8190E0A0E0B0E0582F44273327D2
:10F8100022278B8190E0A0E0B0E0DC0199278827C7
:10F82000282B392B4A2B5B2B8D8190E0A0E0B0E098
:10F83000282B392B4A2B5B2B8C8190E0A0E0B0E089
:10F84000BA2FA92F982F8827282B392B4A2B5B2BCF
:10F85000220F331F441F551FC05EDE4F288339839C
:10F860004A835B83C052D1401A8259C13A81C95C34
:10F87000DE4F3883C753D140CA5CDE4F1882C6536F
:10F88000D1408B81C82EDD24CA5CDE4F488159816E
:10F89000C653D140C42AD52A933109F082C0CE5C28
:10F8A000DE4F88819981AA81BB81C253D1408050AB
:10F8B000904CA340B04030F583E0CE5CDE4FE88052
:10F8C000F9800A811B81C253D140F70100935B008C
:10F8D00080935700E89507B600FCFDCFCE5CDE4F65
:10F8E000088119812A813B81C253D14000501F4FAA
:10F8F0002F4F3F4FCE5CDE4F088319832A833B8313
:10F90000C253D140C05EDE4F488159816A817B81FC
:10F91000C052D140DE011B9631E08C9111962C91A2
:10F9200011971296C75CDE4F2883C953D140C85C3B
:10F93000DE4F1882C853D14090E0C85CDE4FE881AA
:10F94000F981C853D1408E2B9F2B0C01FA01609393
:10F950005B0030935700E89511244E5F5F4F6F4F67
:10F960007F4F0EEFE02E0FEFF02ECE0CDF1CC114F8
:10F97000D10499F685E0C05EDE4F088119812A81A5
:10F980003B81C052D140F80120935B008093570027
:10F99000E89507B600FCFDCF81E180935700E8951C
:10F9A00035C0C05EDE4F88819981AA81BB81C0527B
:10F9B000D140B695A795979587957C018601ABE0D8
:10F9C000AA2EB12CAC0EBD1E0BC0D5016D915D01F0
:10F9D000C7010F947FFE0894E11CF11C01501040F8
:10F9E0000115110591F7A60160E070E0440F551F65
:10F9F000661F771FC05EDE4FE880F9800A811B8199
:10FA0000C052D1404E0D5F1D601F711F1A82C05E33
:10FA1000DE4F488359836A837B83C052D1407FC0C5
:10FA2000FA80C55CDE4FF882CB53D140C65CDE4F16
:10FA30001882CA53D1408B81C82EDD24C65CDE4FAC
:10FA400008811981CA53D140C02AD12A1A828981DA
:10FA5000BE016D5F7F4F843121F59601C05EDE4FA0
:10FA6000E880F9800A811B81C052D1400BBFF701A9
:10FA700087919691DB018C9311969C936E5F7F4FDB
:10FA8000D801C7010296A11DB11DC05EDE4F88835B
:10FA90009983AA83BB83C052D14022503040F1F6F3
:10FAA00036C0C05EDE4F288139814A815B81C052F9
:10FAB000D1400894C108D108760100E010E0089414
:10FAC000C11CD11C0894E11CF11C011D111DE20E8A
:10FAD000F31E041F151F21BDBB27A52F942F832FB5
:10FAE00082BD2F5F3F4F4F4F5F4FF89A80B5DB01CC
:10FAF0008D93BD012E153F054007510761F7C05E8C
:10FB0000DE4F288339834A835B83C052D1409601FC
:10FB10002D5F3F4FFB01108204C080EC8A8322E0FE
:10FB200030E08BE18093C6008091C00086FFFCCF5F
:10FB30008091C00080648093C000C15DDE4FF88179
:10FB4000CF52D140F093C6008091C00086FFFCCF19
:10FB50008091C00080648093C000432F3093C60022
:10FB60008091C00086FFFCCF8091C00080648093AC
:10FB7000C000922F2093C6008091C00086FFFCCF6A
:10FB80008091C00080648093C0008EE08093C600A6
:10FB90008091C00086FFFCCF8091C000806480937C
:10FBA000C00065E1C15DDE4FE880CF52D1406E25D7
:10FBB00069276427FE01319610C090819093C6009A
:10FBC0008091C00086FFFCCF31968091C000806498
:10FBD0008093C0006927215030402115310569F715
:10FBE0006093C6008091C00086FFFCCF8091C0006A
:10FBF00080648093C00085B1805885B9772081F4F6
:10FC0000C15DDE4F0881CF52D1400F5FC15DDE4F35
:10FC10000883CF52D14090E0A0E0B0E00D941AF4F8
:10FC200027982F9880E090E020ED37E0F901319798
:10FC3000F1F7019684369105C9F700008091C00064
:10FC40008D7F8093C00081E180935700E895EE2777
:10FC5000FF270994FFCF90E00D941AF497FB092E2B
:10FC600007260AD077FD04D02ED006D000201AF443
:10FC7000709561957F4F0895F6F7909581959F4F08
:10FC80000895A1E21A2EAA1BBB1BFD010DC0AA1FDD
:10FC9000BB1FEE1FFF1FA217B307E407F50720F0F5
:10FCA000A21BB30BE40BF50B661F771F881F991F70
:10FCB0001A9469F760957095809590959B01AC01B9
:10FCC000BD01CF010895AA1BBB1B51E107C0AA1FAC
:10FCD000BB1FA617B70710F0A61BB70B881F991FED
:10FCE0005A95A9F780959095BC01CD010895F99991
:10FCF000FECF92BD81BDF89A992780B50895262F31
:10FD0000F999FECF1FBA92BD81BD20BD0FB6F89400
:0EFD1000FA9AF99A0FBE01960895F894FFCF63
:040000033000E000E9
:00000001FF
