:100000000C9462000C948A000C948A000C948A0070
:100010000C948A000C948A000C948A000C948A0038
:100020000C948A000C948A000C948A000C948A0028
:100030000C948A000C94CD030C948A000C948A00D2
:100040000C9483030C948A000C9451030C942B039E
:100050000C948A000C948A000C948A000C948A00F8
:100060000C948A000C948A000000000024002700F1
:100070002A0000000000250028002B0000000000DE
:1000800023002600290004040404040404040202DA
:100090000202020203030303030301020408102007
:1000A0004080010204081020010204081020000012
:1000B0000008000201000003040700000000000027
:1000C0000000FA0511241FBECFEFD8E0DEBFCDBF80
:1000D00011E0A0E0B1E0EEE0F2E102C005900D9287
:1000E000A632B107D9F721E0A6E2B1E001C01D9226
:1000F000AC3DB207E1F710E0C2E6D0E004C02197C2
:10010000FE010E942706C136D107C9F70E94F403F9
:100110000C9405090C940000AF92BF92CF92DF922D
:10012000EF92FF920F931F93CF93DF936C017B01AC
:100130008B01040F151FEB015E01AE18BF08C0173D
:10014000D10759F06991D601ED91FC910190F081B0
:10015000E02DC6010995892B79F7C501DF91CF9173
:100160001F910F91FF90EF90DF90CF90BF90AF90D5
:100170000895FC01538D448D252F30E0842F90E0AD
:10018000821B930B541710F0CF9608950197089592
:10019000FC01918D828D981761F0A28DAE0FBF2F5B
:1001A000B11D5D968C91928D9F5F9F73928F90E0B1
:1001B00008958FEF9FEF0895FC01918D828D981720
:1001C00031F0828DE80FF11D858D90E008958FEF5D
:1001D0009FEF0895FC01918D228D892F90E0805C26
:1001E0009F4F821B91098F73992708958BE391E0AC
:1001F0000E94EA0021E0892B09F420E0822F089573
:1002000080E090E0892B29F00E94F60081110C9487
:1002100000000895FC01A48DA80FB92FB11DA35AA9
:10022000BF4F2C91848D90E001968F739927848F16
:10023000A689B7892C93A089B1898C918370806439
:100240008C93938D848D981306C00288F389E02DDA
:1002500080818F7D80830895EF92FF920F931F938B
:10026000CF93DF93EC0181E0888F9B8D8C8D981369
:100270001AC0E889F989808185FF15C09FB7F89475
:10028000EE89FF896083E889F989808183708064C1
:1002900080839FBF81E090E0DF91CF911F910F910C
:1002A000FF90EF900895F62E0B8D10E00F5F1F4F1B
:1002B0000F731127E02E8C8D8E110CC00FB607FC2A
:1002C000FACFE889F989808185FFF5CFCE010E94B8
:1002D0000A01F1CFEB8DEC0FFD2FF11DE35AFF4F1B
:1002E000F0829FB7F8940B8FEA89FB898081806246
:1002F000CFCFCF93DF93EC01888D8823B9F0AA8903
:10030000BB89E889F9898C9185FD03C0808186FDD0
:100310000DC00FB607FCF7CF8C9185FFF2CF80811F
:1003200085FFEDCFCE010E940A01E9CFDF91CF9189
:100330000895833081F028F4813099F08230A9F05B
:1003400008958730A9F08830C9F08430B1F48091E5
:1003500080008F7D03C0809180008F778093800024
:10036000089584B58F7784BD089584B58F7DFBCFC4
:100370008091B0008F778093B00008958091B00095
:100380008F7DF9CFCF93DF93282F30E0F901E2552D
:10039000FF4F8491F901E656FF4FD491F901EA57D6
:1003A000FF4FC491CC23A1F081110E949901EC2F41
:1003B000F0E0EE0FFF1FE458FF4FA591B491EC91D0
:1003C000ED2381E090E009F480E0DF91CF91089582
:1003D00080E090E0FACF1F93CF93DF93282F30E097
:1003E000F901E255FF4F8491F901E656FF4FD49190
:1003F000F901EA57FF4FC491CC23A9F0162F8111C0
:100400000E949901EC2FF0E0EE0FFF1FEE58FF4F16
:10041000A591B4918FB7F894EC91111108C0D095C3
:10042000DE23DC938FBFDF91CF911F910895DE2BE8
:10043000F8CFCF93DF9390E0FC01E656FF4F249175
:100440008A579F4FFC0184918823D1F090E0880F58
:10045000991FFC01E859FF4FA591B491FC01EE589A
:10046000FF4FC591D49161110EC09FB7F8948C9144
:10047000E22FE0958E238C932881E223E8839FBFAF
:10048000DF91CF9108958FB7F894EC91E22BEC9324
:100490008FBFF6CF3FB7F89480912B0190912C013C
:1004A000A0912D01B0912E0126B5A89B05C02F3F2C
:1004B00019F00196A11DB11D3FBFBA2FA92F982F8A
:1004C0008827BC01CD01620F711D811D911D42E085
:1004D000660F771F881F991F4A95D1F708958F924D
:1004E0009F92AF92BF92CF92DF92EF92FF924B0119
:1004F0005C010E944A026B017C010E944A026C1955
:100500007D098E099F09683E734081059105A8F316
:1005100021E0821A9108A108B10888EEC80E83E094
:10052000D81EE11CF11C81149104A104B10429F727
:10053000FF90EF90DF90CF90BF90AF909F908F9003
:1005400008951F93CF93DF93182FC8E0D0E061E0A8
:1005500017FF60E087E00E94EB01110F60E088E088
:100560000E94EB0161E088E00E94EB01219779F79E
:1005700060E086E00E94EB0161E086E0DF91CF91D0
:100580001F910C94EB0180913501909136010196F9
:100590008530910589F090933601809335018091E3
:1005A0003501909136018230910591F144F4019723
:1005B000E1F08CEC86BD089581E090E0ECCF8330D3
:1005C0009105C1F10497A9F761E083E00E94EB0176
:1005D000E0913A010E2E000CFF0BEE5FFE4F808182
:1005E0000E94A10260E082E010C061E082E00E940F
:1005F000EB01E09137010E2E000CFF0BEE5FFE4F7A
:1006000080810E94A10260E085E00E94EB01D1CFD1
:1006100061E085E00E94EB01E09138010E2E000CB4
:10062000FF0BEE5FFE4F808180680E94A10260E0B8
:1006300084E0EBCF61E084E00E94EB01E0913901BE
:100640000E2E000CFF0BEE5FFE4F80810E94A10278
:1006500060E083E0DACF1F920F920FB60F92112461
:100660002F933F934F935F936F937F938F939F93BA
:10067000AF93BF93EF93FF938BE391E00E940A0146
:10068000FF91EF91BF91AF919F918F917F916F916A
:100690005F914F913F912F910F900FBE0F901F9040
:1006A00018951F920F920FB60F9211242F938F93CC
:1006B0009F93EF93FF93E0914B01F0914C01808168
:1006C000E0915101F091520182FD1BC09081809117
:1006D00054018F5F8F7320915501821741F0E09193
:1006E0005401F0E0E55CFE4F958F80935401FF913B
:1006F000EF919F918F912F910F900FBE0F901F90B0
:1007000018958081F4CF1F920F920FB60F9211248B
:100710002F933F938F939F93AF93BF938091270124
:1007200090912801A0912901B0912A0130912601D0
:1007300023E0230F2D3758F50196A11DB11D2093FD
:1007400026018093270190932801A0932901B0935B
:100750002A0180912B0190912C01A0912D01B09143
:100760002E010196A11DB11D80932B0190932C01A8
:10077000A0932D01B0932E01BF91AF919F918F91C6
:100780003F912F910F900FBE0F901F90189526E864
:10079000230F0296A11DB11DD2CF1F920F920FB64B
:1007A0000F9211242F933F934F935F936F937F93F7
:1007B0008F939F93AF93BF93EF93FF93E091330198
:1007C000F09134010995FF91EF91BF91AF919F9105
:1007D0008F917F916F915F914F913F912F910F90EA
:1007E0000FBE0F901F901895CF93DF93CDB7DEB754
:1007F00028970FB6F894DEBF0FBECDBF789484B5AE
:10080000826084BD84B5816084BD85B5826085BD0C
:1008100085B5816085BD80916E00816080936E009A
:10082000109281008091810082608093810080918C
:10083000810081608093810080918000816080933D
:1008400080008091B10084608093B1008091B000FD
:1008500081608093B00080917A00846080937A00F8
:1008600080917A00826080937A0080917A00816022
:1008700080937A0080917A00806880937A00109249
:10088000C100E0914B01F0914C0182E08083E09146
:100890004701F09148011082E0914901F0914A012D
:1008A0008FEC808310925301E0914F01F091500141
:1008B00086E08083E0914D01F0914E01808180615E
:1008C0008083E0914D01F0914E01808188608083AA
:1008D000E0914D01F0914E01808180688083E0912C
:1008E0004D01F0914E0180818F7D808361E087E032
:1008F0000E94190261E088E00E94190261E086E02E
:100900000E94190261E085E00E94190261E084E022
:100910000E94190261E083E00E94190261E082E016
:100920000E94190261E08DE00E94190260E08DE0F2
:100930000E94EB0160E08AE00E94190260E089E019
:100940000E94190261E08AE00E94EB0161E089E007
:100950000E94EB0110923601109235011092800036
:1009600080E18093810031E0309331018FB7809333
:100970003201F89480E49FE19093300180932F013D
:100980009093870080938600809132018FBF809181
:100990008100887F809381009091810020913101B6
:1009A000922B9093810083EC92E09093340180939A
:1009B000330130936F0080918100822B80938100FE
:1009C0008EE1C82E81E0D82E7E0185E0E80EF11C74
:1009D000CE0101963C0190E0492E90E0592E22E094
:1009E000A22EB12C3CE3832E912C8091000190919A
:1009F0000101892BC1F50091DA011091DB01B09260
:100A00000101A09200016AE070E080E090E00E94A5
:100A10006F021016110684F48091D8019091D901CB
:100A2000892B51F4015011091093DB010093DA0175
:100A30009092D9018092D8018091D8019091D901EA
:100A400001979093D9018093D8012091DA013091D8
:100A5000DB01232B41F410E000E0892B59F461E025
:100A60008DE00E94EB010091DA011091DB0110167C
:100A700011063CF08091D8019091D9011816190601
:100A80004CF4809100019091010101979093010134
:100A9000809300018AE00E94C201892B81F46AE000
:100AA00070E080E090E00E946F020F5F1F4F109394
:100AB000DB010093DA0160E08DE00E94EB0189E048
:100AC0000E94C201892B11F56AE070E080E090E09D
:100AD0000E946F028091D8019091D9010196909364
:100AE000D9018093D801CC976CF08091DA01909174
:100AF000DB0101969093DB018093DA011092D9011A
:100B00001092D80160E08DE00E94EB0189E00E9424
:100B1000C201892BD9F48AE00E94C201892BB1F469
:100B20001092DB011092DA011092D9011092D801D3
:100B300061E08DE00E94EB0164EF71E080E090E005
:100B40000E946F0260E08DE00E94EB018091DB016A
:100B50008F938091DA018F93DF92CF92FF92EF9281
:100B60000E942D068091D9018F938091D8018F9397
:100B7000DF92CF927F926F920E942D06F701019033
:100B80000020E9F73197AF014E195F09B7018BE3F8
:100B900091E00E948C0042E050E063E271E08BE360
:100BA00091E00E948C008D818F70809337018E813F
:100BB0008F708093380189818F70809339018A8189
:100BC0008F7080933A0164E670E080E090E00E94CC
:100BD0006F020FB6F894DEBF0FBECDBF41145104B3
:100BE00009F403CF0E94F600882309F4FECE0E9488
:100BF0000000FBCEEBE3F1E01382128288EE93E07B
:100C0000A0E0B0E084839583A683B78380E191E080
:100C10009183808385EC90E09587848784EC90E0D5
:100C20009787868780EC90E0918B808B81EC90E0B9
:100C3000938B828B82EC90E0958B848B86EC90E09A
:100C4000978B868B118E128E138E148E0895EE0F55
:100C5000FF1F0590F491E02D0994AEE0B0E0E3E3CE
:100C6000F6E00C94DC080D891E8986E08C831A83DB
:100C700009838FEF9FE79E838D83AE01475E5F4FB1
:100C80006F89788DCE0101960E9450062F8138859C
:100C9000020F131FF80110822E96E4E00C94F8085E
:100CA000ABE0B0E0E6E5F6E00C94CE087C013B0159
:100CB0008A01FC0117821682838181FFC8C1CE019F
:100CC00001965C01F7019381F30193FD859193FFF8
:100CD00081913F01882309F453C1853239F493FD92
:100CE000859193FF81913F01853229F4B70190E00E
:100CF0000E944008E7CF912C212C312CFFE1F31505
:100D000038F08B3211F190F4803209F1833229F1FD
:100D100037FC3CC020ED280F2A3050F536FE20C0AD
:100D20008AE0989E200D1124922E06C08D3291F0FB
:100D3000803371F7689430F8F30193FD859193FF48
:100D400081913F018111DACF21C0689431F8689414
:100D500032F8F2CF689433F8EFCF689434F8ECCFE0
:100D6000EAE02E9E200D1124222E689435F8E4CF5F
:100D70008E3229F436FC04C1689436F8DDCF8C3607
:100D800019F4689437F8D8CF8836B1F2982F9F7D40
:100D900095549330E0F08336A1F18337C1F1833568
:100DA00009F063C02801F2E04F0E511CF801C08029
:100DB000D180692D70E036FC02C06FEF7FEFC60175
:100DC0000E942A084C01689437F882010AC00C5F1F
:100DD0001F4FFFE3F98388248394912C6501E894E5
:100DE00037F833FE2DC0522C8114910471F5552033
:100DF00009F468CFB70180E290E00E9440085A945D
:100E0000F6CFF801808189830E5F1F4FE4CF280160
:100E1000F2E04F0E511CF801C080D180692D70E0C6
:100E200036FC02C06FEF7FEFC6010E9435084C010F
:100E30008201D5CFB70180E290E00E9440082A9459
:100E40002814190409F0B0F7CECFF60137FC8591CC
:100E500037FE81916F01B70190E00E944008511068
:100E60005A94F1E08F1A9108BFCF843619F0893671
:100E700009F077C0F80137FE6BC060817181828113
:100E800093810C5F1F4FF32DFF763F2E97FF09C014
:100E900090958095709561957F4F8F4F9F4F689487
:100EA00037F82AE030E0A5010E947008C82ECA1861
:100EB0008C2C432C36FE0CC0E89440F8C91440F446
:100EC00034FE05C032FC03C0F32DFE7E4F2E892C6C
:100ED00044FE95C0FE01EC0DF11D8081803309F0C8
:100EE00087C0242D297E422E842D8870582E43FCE5
:100EF00095C040FE8FC09C2C821418F42C0C922CB0
:100F0000981844FE91C0B70180E390E00E94400829
:100F100042FE09C088E790E041FE02C088E590E00B
:100F2000B7010E944008C91408F48AC0CA94D12CA1
:100F30009FEFC91AD90ACA0CDB1CF60182916F0116
:100F4000B70190E00E944008AC14BD04B1F74FCF48
:100F500060817181072E000C880B990B0E5F1F4F6B
:100F600092CFD32CE894D4F82AE030E0853739F1D9
:100F7000232D297FD22E8F3601F148F48835A9F030
:100F8000F701868197812B96E2E10C94EA0880377D
:100F900049F08837A9F7D4FE02C06894D2F820E15E
:100FA00030E00DC06894D4F8F6CF34FE03C0822F31
:100FB0008660D82E20E132E002C028E030E0F8015F
:100FC000D7FE0FC060817181828193810C5F1F4FBA
:100FD000A5010E947008C82ECA183D2CE89437F865
:100FE00067CF6081718190E080E00E5F1F4FF0CF8E
:100FF00042FC02C0839478CF8394839475CF842D70
:10100000867809F471CFF6CFB70180E290E00E94B4
:10101000400883948214C0F3512C73CF522C58187B
:10102000821408F46ECFF8CF842D867809F47BCF34
:101030008BE241FE80E247FC8DE2B70190E071CF88
:10104000B70180E390E00E9440089A946CCF8FEF44
:101050009FEF99CFFC010590615070400110D8F7C7
:10106000809590958E0F9F1F0895FC0161507040F0
:1010700001900110D8F7809590958E0F9F1F0895CD
:101080000F931F93CF93DF93182F092FEB018B81C1
:1010900081FD09C01FEF0FEF812F902FDF91CF91BE
:1010A0001F910F91089582FF14C02E813F818C8182
:1010B0009D81281739073CF4E881F981CF01019619
:1010C0009983888310838E819F8101969F838E836D
:1010D000E3CFE885F985812F0995892BA1F3DACF34
:1010E000FA01AA27283051F1203181F1E8946F9359
:1010F0006E7F6E5F7F4F8F4F9F4FAF4FB1E03ED0FF
:10110000B4E03CD0670F781F891F9A1FA11D680F9C
:10111000791F8A1F911DA11D6A0F711D811D911DCF
:10112000A11D20D009F468943F912AE0269F112444
:101130003019305D3193DEF6CF010895462F4770A8
:10114000405D4193B3E00FD0C9F7F6CF462F4F7003
:10115000405D4A3318F0495D31FD4052419302D061
:10116000A9F7EACFB4E0A695979587957795679507
:10117000BA95C9F700976105710508959B01AC0107
:101180000A2E06945795479537952795BA95C9F72E
:10119000620F731F841F951FA01D08952F923F9209
:1011A0004F925F926F927F928F929F92AF92BF9277
:1011B000CF92DF92EF92FF920F931F93CF93DF9323
:1011C000CDB7DEB7CA1BDB0B0FB6F894DEBF0FBE80
:1011D000CDBF09942A88398848885F846E847D84CD
:1011E0008C849B84AA84B984C884DF80EE80FD80CF
:1011F0000C811B81AA81B981CE0FD11D0FB6F89445
:0E120000DEBF0FBECDBFED010895F894FFCF05
:10120E000A003F065B4F666D7D077F6F0000000092
:10121E002C018C00B9007901EA00C800DC002530F1
:06122E003264000D0A000D
:107E0000112484B714BE81FFF0D085E080938100F7
:107E100082E08093C00088E18093C10086E0809377
:107E2000C20080E18093C4008EE0C9D0259A86E02C
:107E300020E33CEF91E0309385002093840096BBD3
:107E4000B09BFECF1D9AA8958150A9F7CC24DD24C4
:107E500088248394B5E0AB2EA1E19A2EF3E0BF2EE7
:107E6000A2D0813461F49FD0082FAFD0023811F036
:107E7000013811F484E001C083E08DD089C08234E0
:107E800011F484E103C0853419F485E0A6D080C0E4
:107E9000853579F488D0E82EFF2485D0082F10E0AE
:107EA000102F00270E291F29000F111F8ED06801E7
:107EB0006FC0863521F484E090D080E0DECF843638
:107EC00009F040C070D06FD0082F6DD080E0C81688
:107ED00080E7D80618F4F601B7BEE895C0E0D1E017
:107EE00062D089930C17E1F7F0E0CF16F0E7DF06D8
:107EF00018F0F601B7BEE89568D007B600FCFDCFD4
:107F0000A601A0E0B1E02C9130E011968C91119780
:107F100090E0982F8827822B932B1296FA010C0160
:107F200087BEE89511244E5F5F4FF1E0A038BF0790
:107F300051F7F601A7BEE89507B600FCFDCF97BE46
:107F4000E89526C08437B1F42ED02DD0F82E2BD052
:107F50003CD0F601EF2C8F010F5F1F4F84911BD097
:107F6000EA94F801C1F70894C11CD11CFA94CF0C13
:107F7000D11C0EC0853739F428D08EE10CD085E9AC
:107F80000AD08FE07ACF813511F488E018D01DD067
:107F900080E101D065CF982F8091C00085FFFCCF94
:107FA0009093C60008958091C00087FFFCCF809118
:107FB000C00084FD01C0A8958091C6000895E0E648
:107FC000F0E098E1908380830895EDDF803219F02E
:107FD00088E0F5DFFFCF84E1DECF1F93182FE3DFCA
:107FE0001150E9F7F2DF1F91089580E0E8DFEE27F6
:047FF000FF270994CA
:027FFE00040479
:0400000300007E007B
:00000001FF
